{"abi":[{"type":"constructor","inputs":[],"stateMutability":"nonpayable"},{"type":"receive","stateMutability":"payable"},{"type":"function","name":"allowance","inputs":[{"name":"owner","type":"address","internalType":"address"},{"name":"spender","type":"address","internalType":"address"}],"outputs":[{"name":"","type":"uint256","internalType":"uint256"}],"stateMutability":"view"},{"type":"function","name":"approve","inputs":[{"name":"spender","type":"address","internalType":"address"},{"name":"value","type":"uint256","internalType":"uint256"}],"outputs":[{"name":"","type":"bool","internalType":"bool"}],"stateMutability":"nonpayable"},{"type":"function","name":"balanceOf","inputs":[{"name":"account","type":"address","internalType":"address"}],"outputs":[{"name":"","type":"uint256","internalType":"uint256"}],"stateMutability":"view"},{"type":"function","name":"decimals","inputs":[],"outputs":[{"name":"","type":"uint8","internalType":"uint8"}],"stateMutability":"view"},{"type":"function","name":"deposit","inputs":[],"outputs":[],"stateMutability":"payable"},{"type":"function","name":"getContractETHBalance","inputs":[],"outputs":[{"name":"","type":"uint256","internalType":"uint256"}],"stateMutability":"view"},{"type":"function","name":"name","inputs":[],"outputs":[{"name":"","type":"string","internalType":"string"}],"stateMutability":"view"},{"type":"function","name":"owner","inputs":[],"outputs":[{"name":"","type":"address","internalType":"address"}],"stateMutability":"view"},{"type":"function","name":"renounceOwnership","inputs":[],"outputs":[],"stateMutability":"nonpayable"},{"type":"function","name":"symbol","inputs":[],"outputs":[{"name":"","type":"string","internalType":"string"}],"stateMutability":"view"},{"type":"function","name":"totalSupply","inputs":[],"outputs":[{"name":"","type":"uint256","internalType":"uint256"}],"stateMutability":"view"},{"type":"function","name":"transfer","inputs":[{"name":"to","type":"address","internalType":"address"},{"name":"value","type":"uint256","internalType":"uint256"}],"outputs":[{"name":"","type":"bool","internalType":"bool"}],"stateMutability":"nonpayable"},{"type":"function","name":"transferFrom","inputs":[{"name":"from","type":"address","internalType":"address"},{"name":"to","type":"address","internalType":"address"},{"name":"value","type":"uint256","internalType":"uint256"}],"outputs":[{"name":"","type":"bool","internalType":"bool"}],"stateMutability":"nonpayable"},{"type":"function","name":"transferOwnership","inputs":[{"name":"newOwner","type":"address","internalType":"address"}],"outputs":[],"stateMutability":"nonpayable"},{"type":"function","name":"withdraw","inputs":[{"name":"amount","type":"uint256","internalType":"uint256"}],"outputs":[],"stateMutability":"nonpayable"},{"type":"event","name":"Approval","inputs":[{"name":"owner","type":"address","indexed":true,"internalType":"address"},{"name":"spender","type":"address","indexed":true,"internalType":"address"},{"name":"value","type":"uint256","indexed":false,"internalType":"uint256"}],"anonymous":false},{"type":"event","name":"ETHDeposited","inputs":[{"name":"user","type":"address","indexed":true,"internalType":"address"},{"name":"amount","type":"uint256","indexed":false,"internalType":"uint256"}],"anonymous":false},{"type":"event","name":"ETHWithdrawn","inputs":[{"name":"user","type":"address","indexed":true,"internalType":"address"},{"name":"amount","type":"uint256","indexed":false,"internalType":"uint256"}],"anonymous":false},{"type":"event","name":"OwnershipTransferred","inputs":[{"name":"previousOwner","type":"address","indexed":true,"internalType":"address"},{"name":"newOwner","type":"address","indexed":true,"internalType":"address"}],"anonymous":false},{"type":"event","name":"Transfer","inputs":[{"name":"from","type":"address","indexed":true,"internalType":"address"},{"name":"to","type":"address","indexed":true,"internalType":"address"},{"name":"value","type":"uint256","indexed":false,"internalType":"uint256"}],"anonymous":false},{"type":"error","name":"ERC20InsufficientAllowance","inputs":[{"name":"spender","type":"address","internalType":"address"},{"name":"allowance","type":"uint256","internalType":"uint256"},{"name":"needed","type":"uint256","internalType":"uint256"}]},{"type":"error","name":"ERC20InsufficientBalance","inputs":[{"name":"sender","type":"address","internalType":"address"},{"name":"balance","type":"uint256","internalType":"uint256"},{"name":"needed","type":"uint256","internalType":"uint256"}]},{"type":"error","name":"ERC20InvalidApprover","inputs":[{"name":"approver","type":"address","internalType":"address"}]},{"type":"error","name":"ERC20InvalidReceiver","inputs":[{"name":"receiver","type":"address","internalType":"address"}]},{"type":"error","name":"ERC20InvalidSender","inputs":[{"name":"sender","type":"address","internalType":"address"}]},{"type":"error","name":"ERC20InvalidSpender","inputs":[{"name":"spender","type":"address","internalType":"address"}]},{"type":"error","name":"OwnableInvalidOwner","inputs":[{"name":"owner","type":"address","internalType":"address"}]},{"type":"error","name":"OwnableUnauthorizedAccount","inputs":[{"name":"account","type":"address","internalType":"address"}]},{"type":"error","name":"ReentrancyGuardReentrantCall","inputs":[]}],"bytecode":{"object":"0x608060405234801562000010575f80fd5b5033604051806040016040528060118152602001702232b837b9b4ba1022aa24102a37b5b2b760791b815250604051806040016040528060048152602001630c88aa8960e31b81525081600390816200006a9190620001b2565b506004620000798282620001b2565b5050506001600160a01b038116620000aa57604051631e4fbdf760e01b81525f600482015260240160405180910390fd5b620000b581620000c1565b5060016006556200027a565b600580546001600160a01b038381166001600160a01b0319831681179093556040519116919082907f8be0079c531659141344cd1fd0a4f28419497f9722a3daafe3b4186f6b6457e0905f90a35050565b634e487b7160e01b5f52604160045260245ffd5b600181811c908216806200013b57607f821691505b6020821081036200015a57634e487b7160e01b5f52602260045260245ffd5b50919050565b601f821115620001ad575f81815260208120601f850160051c81016020861015620001885750805b601f850160051c820191505b81811015620001a95782815560010162000194565b5050505b505050565b81516001600160401b03811115620001ce57620001ce62000112565b620001e681620001df845462000126565b8462000160565b602080601f8311600181146200021c575f8415620002045750858301515b5f19600386901b1c1916600185901b178555620001a9565b5f85815260208120601f198616915b828110156200024c578886015182559484019460019091019084016200022b565b50858210156200026a57878501515f19600388901b60f8161c191681555b5050505050600190811b01905550565b610bf580620002885f395ff3fe6080604052600436106100e7575f3560e01c8063715018a611610087578063a9059cbb11610057578063a9059cbb14610259578063d0e30db014610278578063dd62ed3e14610280578063f2fde38b146102c4575f80fd5b8063715018a6146101f85780638c89a0ad1461020c5780638da5cb5b1461021e57806395d89b4114610245575f80fd5b806323b872dd116100c257806323b872dd146101695780632e1a7d4d14610188578063313ce567146101a957806370a08231146101c4575f80fd5b806306fdde03146100f2578063095ea7b31461011c57806318160ddd1461014b575f80fd5b366100ee57005b5f80fd5b3480156100fd575f80fd5b506101066102e3565b6040516101139190610a39565b60405180910390f35b348015610127575f80fd5b5061013b610136366004610a9f565b610373565b6040519015158152602001610113565b348015610156575f80fd5b506002545b604051908152602001610113565b348015610174575f80fd5b5061013b610183366004610ac7565b61038c565b348015610193575f80fd5b506101a76101a2366004610b00565b6103af565b005b3480156101b4575f80fd5b5060405160128152602001610113565b3480156101cf575f80fd5b5061015b6101de366004610b17565b6001600160a01b03165f9081526020819052604090205490565b348015610203575f80fd5b506101a7610541565b348015610217575f80fd5b504761015b565b348015610229575f80fd5b506005546040516001600160a01b039091168152602001610113565b348015610250575f80fd5b50610106610554565b348015610264575f80fd5b5061013b610273366004610a9f565b610563565b6101a7610570565b34801561028b575f80fd5b5061015b61029a366004610b37565b6001600160a01b039182165f90815260016020908152604080832093909416825291909152205490565b3480156102cf575f80fd5b506101a76102de366004610b17565b610608565b6060600380546102f290610b68565b80601f016020809104026020016040519081016040528092919081815260200182805461031e90610b68565b80156103695780601f1061034057610100808354040283529160200191610369565b820191905f5260205f20905b81548152906001019060200180831161034c57829003601f168201915b5050505050905090565b5f33610380818585610642565b60019150505b92915050565b5f33610399858285610654565b6103a48585856106d0565b506001949350505050565b6103b761072d565b5f811161040b5760405162461bcd60e51b815260206004820152601d60248201527f416d6f756e74206d7573742062652067726561746572207468616e203000000060448201526064015b60405180910390fd5b335f908152602081905260409020548111156104695760405162461bcd60e51b815260206004820152601960248201527f496e73756666696369656e7420644554482062616c616e6365000000000000006044820152606401610402565b6104733382610757565b6040515f90339083908381818185875af1925050503d805f81146104b2576040519150601f19603f3d011682016040523d82523d5f602084013e6104b7565b606091505b50509050806104fe5760405162461bcd60e51b8152602060048201526013602482015272115512081d1c985b9cd9995c8819985a5b1959606a1b6044820152606401610402565b60405182815233907f94b2de810873337ed265c5f8cf98c9cffefa06b8607f9a2f1fbaebdfbcfbef1c9060200160405180910390a25061053e6001600655565b50565b61054961078f565b6105525f6107bc565b565b6060600480546102f290610b68565b5f336103808185856106d0565b61057861072d565b5f34116105bf5760405162461bcd60e51b815260206004820152601560248201527409aeae6e840c8cae0dee6d2e840e6dedaca408aa89605b1b6044820152606401610402565b6105c9333461080d565b60405134815233907f6c703791f399558807424f489ccd811c72b4ff0b74af547264fad7c646776df09060200160405180910390a26105526001600655565b61061061078f565b6001600160a01b03811661063957604051631e4fbdf760e01b81525f6004820152602401610402565b61053e816107bc565b61064f8383836001610841565b505050565b6001600160a01b038381165f908152600160209081526040808320938616835292905220545f198110156106ca57818110156106bc57604051637dc7a0d960e11b81526001600160a01b03841660048201526024810182905260448101839052606401610402565b6106ca84848484035f610841565b50505050565b6001600160a01b0383166106f957604051634b637e8f60e11b81525f6004820152602401610402565b6001600160a01b0382166107225760405163ec442f0560e01b81525f6004820152602401610402565b61064f838383610913565b60026006540361075057604051633ee5aeb560e01b815260040160405180910390fd5b6002600655565b6001600160a01b03821661078057604051634b637e8f60e11b81525f6004820152602401610402565b61078b825f83610913565b5050565b6005546001600160a01b031633146105525760405163118cdaa760e01b8152336004820152602401610402565b600580546001600160a01b038381166001600160a01b0319831681179093556040519116919082907f8be0079c531659141344cd1fd0a4f28419497f9722a3daafe3b4186f6b6457e0905f90a35050565b6001600160a01b0382166108365760405163ec442f0560e01b81525f6004820152602401610402565b61078b5f8383610913565b6001600160a01b03841661086a5760405163e602df0560e01b81525f6004820152602401610402565b6001600160a01b03831661089357604051634a1406b160e11b81525f6004820152602401610402565b6001600160a01b038085165f90815260016020908152604080832093871683529290522082905580156106ca57826001600160a01b0316846001600160a01b03167f8c5be1e5ebec7d5bd14f71427d1e84f3dd0314c0f7b2291e5b200ac8c7c3b9258460405161090591815260200190565b60405180910390a350505050565b6001600160a01b03831661093d578060025f8282546109329190610ba0565b909155506109ad9050565b6001600160a01b0383165f908152602081905260409020548181101561098f5760405163391434e360e21b81526001600160a01b03851660048201526024810182905260448101839052606401610402565b6001600160a01b0384165f9081526020819052604090209082900390555b6001600160a01b0382166109c9576002805482900390556109e7565b6001600160a01b0382165f9081526020819052604090208054820190555b816001600160a01b0316836001600160a01b03167fddf252ad1be2c89b69c2b068fc378daa952ba7f163c4a11628f55a4df523b3ef83604051610a2c91815260200190565b60405180910390a3505050565b5f6020808352835180828501525f5b81811015610a6457858101830151858201604001528201610a48565b505f604082860101526040601f19601f8301168501019250505092915050565b80356001600160a01b0381168114610a9a575f80fd5b919050565b5f8060408385031215610ab0575f80fd5b610ab983610a84565b946020939093013593505050565b5f805f60608486031215610ad9575f80fd5b610ae284610a84565b9250610af060208501610a84565b9150604084013590509250925092565b5f60208284031215610b10575f80fd5b5035919050565b5f60208284031215610b27575f80fd5b610b3082610a84565b9392505050565b5f8060408385031215610b48575f80fd5b610b5183610a84565b9150610b5f60208401610a84565b90509250929050565b600181811c90821680610b7c57607f821691505b602082108103610b9a57634e487b7160e01b5f52602260045260245ffd5b50919050565b8082018082111561038657634e487b7160e01b5f52601160045260245ffdfea2646970667358221220e11c7d60f360a8a3eb424d44d4b25345290261101a3da7cd141545c1ace7822f64736f6c63430008140033","linkReferences":{}},"methodIdentifiers":{"allowance(address,address)":"dd62ed3e","approve(address,uint256)":"095ea7b3","balanceOf(address)":"70a08231","decimals()":"313ce567","deposit()":"d0e30db0","getContractETHBalance()":"8c89a0ad","name()":"06fdde03","owner()":"8da5cb5b","renounceOwnership()":"715018a6","symbol()":"95d89b41","totalSupply()":"18160ddd","transfer(address,uint256)":"a9059cbb","transferFrom(address,address,uint256)":"23b872dd","transferOwnership(address)":"f2fde38b","withdraw(uint256)":"2e1a7d4d"},"id":2}