{"abi":[{"type":"constructor","inputs":[],"stateMutability":"nonpayable"},{"type":"receive","stateMutability":"payable"},{"type":"function","name":"allowance","inputs":[{"name":"owner","type":"address","internalType":"address"},{"name":"spender","type":"address","internalType":"address"}],"outputs":[{"name":"","type":"uint256","internalType":"uint256"}],"stateMutability":"view"},{"type":"function","name":"approve","inputs":[{"name":"spender","type":"address","internalType":"address"},{"name":"value","type":"uint256","internalType":"uint256"}],"outputs":[{"name":"","type":"bool","internalType":"bool"}],"stateMutability":"nonpayable"},{"type":"function","name":"balanceOf","inputs":[{"name":"account","type":"address","internalType":"address"}],"outputs":[{"name":"","type":"uint256","internalType":"uint256"}],"stateMutability":"view"},{"type":"function","name":"decimals","inputs":[],"outputs":[{"name":"","type":"uint8","internalType":"uint8"}],"stateMutability":"view"},{"type":"function","name":"deposit","inputs":[],"outputs":[],"stateMutability":"payable"},{"type":"function","name":"getContractETHBalance","inputs":[],"outputs":[{"name":"","type":"uint256","internalType":"uint256"}],"stateMutability":"view"},{"type":"function","name":"name","inputs":[],"outputs":[{"name":"","type":"string","internalType":"string"}],"stateMutability":"view"},{"type":"function","name":"owner","inputs":[],"outputs":[{"name":"","type":"address","internalType":"address"}],"stateMutability":"view"},{"type":"function","name":"renounceOwnership","inputs":[],"outputs":[],"stateMutability":"nonpayable"},{"type":"function","name":"symbol","inputs":[],"outputs":[{"name":"","type":"string","internalType":"string"}],"stateMutability":"view"},{"type":"function","name":"totalSupply","inputs":[],"outputs":[{"name":"","type":"uint256","internalType":"uint256"}],"stateMutability":"view"},{"type":"function","name":"transfer","inputs":[{"name":"to","type":"address","internalType":"address"},{"name":"value","type":"uint256","internalType":"uint256"}],"outputs":[{"name":"","type":"bool","internalType":"bool"}],"stateMutability":"nonpayable"},{"type":"function","name":"transferFrom","inputs":[{"name":"from","type":"address","internalType":"address"},{"name":"to","type":"address","internalType":"address"},{"name":"value","type":"uint256","internalType":"uint256"}],"outputs":[{"name":"","type":"bool","internalType":"bool"}],"stateMutability":"nonpayable"},{"type":"function","name":"transferOwnership","inputs":[{"name":"newOwner","type":"address","internalType":"address"}],"outputs":[],"stateMutability":"nonpayable"},{"type":"function","name":"withdraw","inputs":[{"name":"amount","type":"uint256","internalType":"uint256"}],"outputs":[],"stateMutability":"nonpayable"},{"type":"event","name":"Approval","inputs":[{"name":"owner","type":"address","indexed":true,"internalType":"address"},{"name":"spender","type":"address","indexed":true,"internalType":"address"},{"name":"value","type":"uint256","indexed":false,"internalType":"uint256"}],"anonymous":false},{"type":"event","name":"ETHDeposited","inputs":[{"name":"user","type":"address","indexed":true,"internalType":"address"},{"name":"amount","type":"uint256","indexed":false,"internalType":"uint256"}],"anonymous":false},{"type":"event","name":"ETHWithdrawn","inputs":[{"name":"user","type":"address","indexed":true,"internalType":"address"},{"name":"amount","type":"uint256","indexed":false,"internalType":"uint256"}],"anonymous":false},{"type":"event","name":"OwnershipTransferred","inputs":[{"name":"previousOwner","type":"address","indexed":true,"internalType":"address"},{"name":"newOwner","type":"address","indexed":true,"internalType":"address"}],"anonymous":false},{"type":"event","name":"Transfer","inputs":[{"name":"from","type":"address","indexed":true,"internalType":"address"},{"name":"to","type":"address","indexed":true,"internalType":"address"},{"name":"value","type":"uint256","indexed":false,"internalType":"uint256"}],"anonymous":false},{"type":"error","name":"ERC20InsufficientAllowance","inputs":[{"name":"spender","type":"address","internalType":"address"},{"name":"allowance","type":"uint256","internalType":"uint256"},{"name":"needed","type":"uint256","internalType":"uint256"}]},{"type":"error","name":"ERC20InsufficientBalance","inputs":[{"name":"sender","type":"address","internalType":"address"},{"name":"balance","type":"uint256","internalType":"uint256"},{"name":"needed","type":"uint256","internalType":"uint256"}]},{"type":"error","name":"ERC20InvalidApprover","inputs":[{"name":"approver","type":"address","internalType":"address"}]},{"type":"error","name":"ERC20InvalidReceiver","inputs":[{"name":"receiver","type":"address","internalType":"address"}]},{"type":"error","name":"ERC20InvalidSender","inputs":[{"name":"sender","type":"address","internalType":"address"}]},{"type":"error","name":"ERC20InvalidSpender","inputs":[{"name":"spender","type":"address","internalType":"address"}]},{"type":"error","name":"OwnableInvalidOwner","inputs":[{"name":"owner","type":"address","internalType":"address"}]},{"type":"error","name":"OwnableUnauthorizedAccount","inputs":[{"name":"account","type":"address","internalType":"address"}]},{"type":"error","name":"ReentrancyGuardReentrantCall","inputs":[]}],"bytecode":{"object":"0x6080346200039e576001600160401b0390604090808201838111828210176200038a57825260118152602092702232b837b9b4ba1022aa24102a37b5b2b760791b84830152825190838201828110828211176200038a578452600491828152630c88aa8960e31b86820152835182811162000377576003918254916001968784811c941680156200036c575b8a85101462000359578190601f9485811162000306575b508a90858311600114620002a1575f9262000295575b50505f1982861b1c191690871b1783555b805193841162000282578454978689811c9916801562000277575b818a101462000264578883869798999a116200020b575b5080928511600114620001a157505f9362000195575b505082851b925f19911b1c19161781555b33156200017f575060058054336001600160a01b0319821681179092559251926001600160a01b03167f8be0079c531659141344cd1fd0a4f28419497f9722a3daafe3b4186f6b6457e05f80a3600655610baa9081620003a38239f35b6024905f845191631e4fbdf760e01b8352820152fd5b015191505f8062000111565b929190879550601f198516875f52845f20945f905b828210620001f15750508511620001d7575b50505050811b01815562000122565b01519060f8845f19921b161c191690555f808080620001c8565b8484015187558a98909601959384019390810190620001b6565b909192939450865f52815f208480880160051c8201928489106200025a575b918a91899897969594930160051c01915b8281106200024b575050620000fb565b5f81558897508a91016200023b565b925081926200022a565b602286634e487b7160e01b5f525260245ffd5b98607f1698620000e4565b604185634e487b7160e01b5f525260245ffd5b015190505f80620000b8565b5f8781528c81208b9550929190601f198516908e5b828210620002ee5750508411620002d6575b505050811b018355620000c9565b01515f1983881b60f8161c191690555f8080620002c8565b8385015186558d979095019493840193018e620002b6565b909150855f528a5f208580850160051c8201928d86106200034f575b918b91869594930160051c01915b82811062000340575050620000a2565b5f81558594508b910162000330565b9250819262000322565b602287634e487b7160e01b5f525260245ffd5b93607f16936200008b565b604184634e487b7160e01b5f525260245ffd5b634e487b7160e01b5f52604160045260245ffd5b5f80fdfe60806040818152600480361015610020575b505050361561001e575f80fd5b005b5f92833560e01c90816306fdde03146108ab57508063095ea7b31461080257806318160ddd146107e357806323b872dd146106f15780632e1a7d4d146104da578063313ce567146104be57806370a0823114610487578063715018a6146104275780638c89a0ad1461040c5780638da5cb5b146103e357806395d89b41146102df578063a9059cbb146102ae578063d0e30db0146101ac578063dd62ed3e1461015f5763f2fde38b03610011573461015b57602036600319011261015b576100e66109e4565b906100ef610a4a565b6001600160a01b03918216928315610145575050600554826bffffffffffffffffffffffff60a01b821617600555167f8be0079c531659141344cd1fd0a4f28419497f9722a3daafe3b4186f6b6457e08380a380f35b51631e4fbdf760e01b8152908101849052602490fd5b8280fd5b5050346101a857806003193601126101a8578060209261017d6109e4565b6101856109fe565b6001600160a01b0391821683526001865283832091168252845220549051908152f35b5080fd5b508260031936011261015b576101c0610b51565b341561027457331561025f576002549034820180921161024c5750600255338252816020528082203481540190558051348152827fddf252ad1be2c89b69c2b068fc378daa952ba7f163c4a11628f55a4df523b3ef60203393a3513481527f6c703791f399558807424f489ccd811c72b4ff0b74af547264fad7c646776df060203392a2600160065580f35b634e487b7160e01b845260119052602483fd5b82602492519163ec442f0560e01b8352820152fd5b6020606492519162461bcd60e51b8352820152601560248201527409aeae6e840c8cae0dee6d2e840e6dedaca408aa89605b1b6044820152fd5b5050346101a857806003193601126101a8576020906102d86102ce6109e4565b6024359033610a76565b5160018152f35b509190346101a857816003193601126101a857805191809380549160019083821c928285169485156103d9575b60209586861081146103c6578589529081156103a2575060011461034a575b610346878761033c828c0383610a14565b519182918261099d565b0390f35b81529295507f8a35acfbc15ff81a39ae7d344fd709f28e8600b4aa8c65c6b64bfe7fe36bd19b5b82841061038f57505050826103469461033c92820101945f8061032b565b8054868501880152928601928101610371565b60ff19168887015250505050151560051b830101925061033c826103465f8061032b565b634e487b7160e01b845260228352602484fd5b93607f169361030c565b5050346101a857816003193601126101a85760055490516001600160a01b039091168152602090f35b5050346101a857816003193601126101a85751478152602090f35b8334610484578060031936011261048457610440610a4a565b600580546001600160a01b0319811690915581906001600160a01b03167f8be0079c531659141344cd1fd0a4f28419497f9722a3daafe3b4186f6b6457e08280a380f35b80fd5b5050346101a85760203660031901126101a85760209181906001600160a01b036104af6109e4565b16815280845220549051908152f35b5050346101a857816003193601126101a8576020905160128152f35b50903461015b57602090816003193601126106ed578235926104fa610b51565b83156106ac5733855284835283828620541061066b573315610656573385528483528185205484811061062b578490338752868552038286205583600254036002558482518581527fddf252ad1be2c89b69c2b068fc378daa952ba7f163c4a11628f55a4df523b3ef853392a38480808087335af13d15610626573d67ffffffffffffffff81116106135783519061059b601f8201601f1916870183610a14565b815286853d92013e5b156105dc5750907f94b2de810873337ed265c5f8cf98c9cffefa06b8607f9a2f1fbaebdfbcfbef1c91519283523392a2600160065580f35b82606492519162461bcd60e51b83528201526013602482015272115512081d1c985b9cd9995c8819985a5b1959606a1b6044820152fd5b634e487b7160e01b875260418352602487fd5b6105a4565b915163391434e360e21b81523391810191825260208201929092526040810184905281906060010390fd5b846024925191634b637e8f60e11b8352820152fd5b82606492519162461bcd60e51b8352820152601960248201527f496e73756666696369656e7420644554482062616c616e6365000000000000006044820152fd5b82606492519162461bcd60e51b8352820152601d60248201527f416d6f756e74206d7573742062652067726561746572207468616e20300000006044820152fd5b8380fd5b5082346104845760603660031901126104845761070c6109e4565b6107146109fe565b916044359360018060a01b038316808352600160205286832033845260205286832054915f19831061074f575b6020886102d8898989610a76565b8683106107b75781156107a0573315610789575082526001602090815286832033845281529186902090859003905582906102d887610741565b8751634a1406b160e11b8152908101849052602490fd5b875163e602df0560e01b8152908101849052602490fd5b8751637dc7a0d960e11b8152339181019182526020820193909352604081018790528291506060010390fd5b5050346101a857816003193601126101a8576020906002549051908152f35b503461015b578160031936011261015b5761081b6109e4565b602435903315610894576001600160a01b031691821561087d57508083602095338152600187528181208582528752205582519081527f8c5be1e5ebec7d5bd14f71427d1e84f3dd0314c0f7b2291e5b200ac8c7c3b925843392a35160018152f35b8351634a1406b160e11b8152908101859052602490fd5b835163e602df0560e01b8152808401869052602490fd5b92919050346106ed57836003193601126106ed57600354600181811c9186908281168015610993575b6020958686108214610980575084885290811561095e5750600114610905575b610346868661033c828b0383610a14565b929550600383527fc2575a0e9e593c00f959f8c92f12db2869c3395a3b0502d05e2516446f71f85b5b82841061094b57505050826103469461033c92820101945f6108f4565b805486850188015292860192810161092e565b60ff191687860152505050151560051b830101925061033c826103465f6108f4565b634e487b7160e01b845260229052602483fd5b93607f16936108d4565b602080825282518183018190529093925f5b8281106109d057505060409293505f838284010152601f8019910116010190565b8181018601518482016040015285016109af565b600435906001600160a01b03821682036109fa57565b5f80fd5b602435906001600160a01b03821682036109fa57565b90601f8019910116810190811067ffffffffffffffff821117610a3657604052565b634e487b7160e01b5f52604160045260245ffd5b6005546001600160a01b03163303610a5e57565b60405163118cdaa760e01b8152336004820152602490fd5b916001600160a01b03808416928315610b395716928315610b21575f9083825281602052604082205490838210610aef575091604082827fddf252ad1be2c89b69c2b068fc378daa952ba7f163c4a11628f55a4df523b3ef958760209652828652038282205586815220818154019055604051908152a3565b60405163391434e360e21b81526001600160a01b03919091166004820152602481019190915260448101839052606490fd5b60405163ec442f0560e01b81525f6004820152602490fd5b604051634b637e8f60e11b81525f6004820152602490fd5b600260065414610b62576002600655565b604051633ee5aeb560e01b8152600490fdfea26469706673582212203ae82c585acbe1168e170dce46403dd9eceaa1b4b32218a026aea57eed3ab6f764736f6c63430008140033","linkReferences":{}},"methodIdentifiers":{"allowance(address,address)":"dd62ed3e","approve(address,uint256)":"095ea7b3","balanceOf(address)":"70a08231","decimals()":"313ce567","deposit()":"d0e30db0","getContractETHBalance()":"8c89a0ad","name()":"06fdde03","owner()":"8da5cb5b","renounceOwnership()":"715018a6","symbol()":"95d89b41","totalSupply()":"18160ddd","transfer(address,uint256)":"a9059cbb","transferFrom(address,address,uint256)":"23b872dd","transferOwnership(address)":"f2fde38b","withdraw(uint256)":"2e1a7d4d"},"id":2}