{"abi":[{"type":"constructor","inputs":[{"name":"_sETHToken","type":"address","internalType":"address payable"},{"name":"_dETHToken","type":"address","internalType":"address payable"}],"stateMutability":"nonpayable"},{"type":"function","name":"dETHToken","inputs":[],"outputs":[{"name":"","type":"address","internalType":"contract DepositETH"}],"stateMutability":"view"},{"type":"function","name":"getLeaderboard","inputs":[{"name":"count","type":"uint256","internalType":"uint256"}],"outputs":[{"name":"stakerAddresses","type":"address[]","internalType":"address[]"},{"name":"stakedAmounts","type":"uint256[]","internalType":"uint256[]"},{"name":"percentageOfTotal","type":"uint256[]","internalType":"uint256[]"}],"stateMutability":"view"},{"type":"function","name":"getPaginatedStakersDetailed","inputs":[{"name":"offset","type":"uint256","internalType":"uint256"},{"name":"limit","type":"uint256","internalType":"uint256"}],"outputs":[{"name":"stakers","type":"address[]","internalType":"address[]"},{"name":"amounts","type":"uint256[]","internalType":"uint256[]"},{"name":"timestamps","type":"uint256[]","internalType":"uint256[]"},{"name":"ranks","type":"uint256[]","internalType":"uint256[]"},{"name":"percentages","type":"uint256[]","internalType":"uint256[]"}],"stateMutability":"view"},{"type":"function","name":"getStakerDetails","inputs":[{"name":"staker","type":"address","internalType":"address"}],"outputs":[{"name":"stakedAmount","type":"uint256","internalType":"uint256"},{"name":"stakingTimestamp","type":"uint256","internalType":"uint256"},{"name":"rank","type":"uint256","internalType":"uint256"},{"name":"percentageOfTotal","type":"uint256","internalType":"uint256"}],"stateMutability":"view"},{"type":"function","name":"getStakingActivity","inputs":[{"name":"daysAgo","type":"uint256","internalType":"uint256"}],"outputs":[{"name":"activeStakers","type":"uint256","internalType":"uint256"},{"name":"recentStakers","type":"address[]","internalType":"address[]"}],"stateMutability":"view"},{"type":"function","name":"getStakingOverview","inputs":[],"outputs":[{"name":"totalETHDeposited","type":"uint256","internalType":"uint256"},{"name":"totalETHStaked","type":"uint256","internalType":"uint256"},{"name":"totalStakers","type":"uint256","internalType":"uint256"},{"name":"averageStakeAmount","type":"uint256","internalType":"uint256"}],"stateMutability":"view"},{"type":"function","name":"sETHToken","inputs":[],"outputs":[{"name":"","type":"address","internalType":"contract StakedETH"}],"stateMutability":"view"}],"bytecode":{"object":"0x608060405234801561000f575f80fd5b50604051610f8e380380610f8e83398101604081905261002e91610079565b5f80546001600160a01b039384166001600160a01b031991821617909155600180549290931691161790556100aa565b80516001600160a01b0381168114610074575f80fd5b919050565b5f806040838503121561008a575f80fd5b6100938361005e565b91506100a16020840161005e565b90509250929050565b610ed7806100b75f395ff3fe608060405234801561000f575f80fd5b506004361061007a575f3560e01c80638fb80c73116100585780638fb80c73146100f657806394c784e814610129578063a34b46fe1461013c578063efc990d61461015e575f80fd5b8063325aa9e11461007e5780634350f546146100a857806369755c32146100cc575b5f80fd5b61009161008c3660046109b9565b610166565b60405161009f929190610a12565b60405180910390f35b6100bb6100b6366004610a32565b610438565b60405161009f959493929190610a80565b5f546100de906001600160a01b031681565b6040516001600160a01b03909116815260200161009f565b610109610104366004610b03565b6105f9565b60408051948552602085019390935291830152606082015260800161009f565b6001546100de906001600160a01b031681565b61014f61014a3660046109b9565b610712565b60405161009f93929190610b25565b6101096108c0565b5f6060816101778462015180610b7b565b6101819042610b98565b90505f805f9054906101000a90046001600160a01b03166001600160a01b0316636e4f88c86040518163ffffffff1660e01b81526004015f60405180830381865afa1580156101d2573d5f803e3d5ffd5b505050506040513d5f823e601f3d908101601f191682016040526101f99190810190610c84565b90505f805b82518110156102ce575f805484516001600160a01b039091169063c34531539086908590811061023057610230610cb6565b60200260200101516040518263ffffffff1660e01b815260040161026391906001600160a01b0391909116815260200190565b606060405180830381865afa15801561027e573d5f803e3d5ffd5b505050506040513d601f19601f820116820180604052508101906102a29190610cca565b509150508481106102bb57826102b781610cf5565b9350505b50806102c681610cf5565b9150506101fe565b508067ffffffffffffffff8111156102e8576102e8610bab565b604051908082528060200260200182016040528015610311578160200160208202803683370190505b5093505f805b835181101561042b575f805485516001600160a01b039091169063c34531539087908590811061034957610349610cb6565b60200260200101516040518263ffffffff1660e01b815260040161037c91906001600160a01b0391909116815260200190565b606060405180830381865afa158015610397573d5f803e3d5ffd5b505050506040513d601f19601f820116820180604052508101906103bb9190610cca565b50915050858110610418578482815181106103d8576103d8610cb6565b60200260200101518784815181106103f2576103f2610cb6565b6001600160a01b03909216602092830291909101909101528261041481610cf5565b9350505b508061042381610cf5565b915050610317565b5081955050505050915091565b5f546040516338ba40e160e01b8152600481018490526024810183905260609182918291829182916001600160a01b0316906338ba40e1906044015f60405180830381865afa15801561048d573d5f803e3d5ffd5b505050506040513d5f823e601f3d908101601f191682016040526104b49190810190610d65565b83519398509196509450925067ffffffffffffffff8111156104d8576104d8610bab565b604051908082528060200260200182016040528015610501578160200160208202803683370190505b5090505f805f9054906101000a90046001600160a01b03166001600160a01b031663817b1cd26040518163ffffffff1660e01b8152600401602060405180830381865afa158015610554573d5f803e3d5ffd5b505050506040513d601f19601f820116820180604052508101906105789190610e0b565b905080156105ee575f5b86518110156105ec578186828151811061059e5761059e610cb6565b60200260200101516127106105b39190610b7b565b6105bd9190610e22565b8382815181106105cf576105cf610cb6565b6020908102919091010152806105e481610cf5565b915050610582565b505b509295509295909350565b5f805460405163c345315360e01b81526001600160a01b0384811660048301528392839283929091169063c345315390602401606060405180830381865afa158015610647573d5f803e3d5ffd5b505050506040513d601f19601f8201168201806040525081019061066b9190610cca565b5f8054604080516340bd8e6960e11b81529051959950939750919550926001600160a01b039091169163817b1cd29160048083019260209291908290030181865afa1580156106bc573d5f803e3d5ffd5b505050506040513d601f19601f820116820180604052508101906106e09190610e0b565b9050801561070657806106f586612710610b7b565b6106ff9190610e22565b915061070a565b5f91505b509193509193565b5f5460405163640651cd60e11b815260048101839052606091829182916001600160a01b03169063c80ca39a906024015f60405180830381865afa15801561075c573d5f803e3d5ffd5b505050506040513d5f823e601f3d908101601f191682016040526107839190810190610e41565b8151919450925067ffffffffffffffff8111156107a2576107a2610bab565b6040519080825280602002602001820160405280156107cb578160200160208202803683370190505b5090505f805f9054906101000a90046001600160a01b03166001600160a01b031663817b1cd26040518163ffffffff1660e01b8152600401602060405180830381865afa15801561081e573d5f803e3d5ffd5b505050506040513d601f19601f820116820180604052508101906108429190610e0b565b905080156108b8575f5b84518110156108b6578184828151811061086857610868610cb6565b602002602001015161271061087d9190610b7b565b6108879190610e22565b83828151811061089957610899610cb6565b6020908102919091010152806108ae81610cf5565b91505061084c565b505b509193909250565b5f805f8060015f9054906101000a90046001600160a01b03166001600160a01b03166318160ddd6040518163ffffffff1660e01b8152600401602060405180830381865afa158015610914573d5f803e3d5ffd5b505050506040513d601f19601f820116820180604052508101906109389190610e0b565b93505f8054906101000a90046001600160a01b03166001600160a01b031663c1dd60846040518163ffffffff1660e01b8152600401606060405180830381865afa158015610988573d5f803e3d5ffd5b505050506040513d601f19601f820116820180604052508101906109ac9190610cca565b9194509250905090919293565b5f602082840312156109c9575f80fd5b5035919050565b5f8151808452602080850194508084015f5b83811015610a075781516001600160a01b0316875295820195908201906001016109e2565b509495945050505050565b828152604060208201525f610a2a60408301846109d0565b949350505050565b5f8060408385031215610a43575f80fd5b50508035926020909101359150565b5f8151808452602080850194508084015f5b83811015610a0757815187529582019590820190600101610a64565b60a081525f610a9260a08301886109d0565b8281036020840152610aa48188610a52565b90508281036040840152610ab88187610a52565b90508281036060840152610acc8186610a52565b90508281036080840152610ae08185610a52565b98975050505050505050565b6001600160a01b0381168114610b00575f80fd5b50565b5f60208284031215610b13575f80fd5b8135610b1e81610aec565b9392505050565b606081525f610b3760608301866109d0565b8281036020840152610b498186610a52565b90508281036040840152610b5d8185610a52565b9695505050505050565b634e487b7160e01b5f52601160045260245ffd5b8082028115828204841417610b9257610b92610b67565b92915050565b81810381811115610b9257610b92610b67565b634e487b7160e01b5f52604160045260245ffd5b604051601f8201601f1916810167ffffffffffffffff81118282101715610be857610be8610bab565b604052919050565b5f67ffffffffffffffff821115610c0957610c09610bab565b5060051b60200190565b5f82601f830112610c22575f80fd5b81516020610c37610c3283610bf0565b610bbf565b82815260059290921b84018101918181019086841115610c55575f80fd5b8286015b84811015610c79578051610c6c81610aec565b8352918301918301610c59565b509695505050505050565b5f60208284031215610c94575f80fd5b815167ffffffffffffffff811115610caa575f80fd5b610a2a84828501610c13565b634e487b7160e01b5f52603260045260245ffd5b5f805f60608486031215610cdc575f80fd5b8351925060208401519150604084015190509250925092565b5f60018201610d0657610d06610b67565b5060010190565b5f82601f830112610d1c575f80fd5b81516020610d2c610c3283610bf0565b82815260059290921b84018101918181019086841115610d4a575f80fd5b8286015b84811015610c795780518352918301918301610d4e565b5f805f8060808587031215610d78575f80fd5b845167ffffffffffffffff80821115610d8f575f80fd5b610d9b88838901610c13565b95506020870151915080821115610db0575f80fd5b610dbc88838901610d0d565b94506040870151915080821115610dd1575f80fd5b610ddd88838901610d0d565b93506060870151915080821115610df2575f80fd5b50610dff87828801610d0d565b91505092959194509250565b5f60208284031215610e1b575f80fd5b5051919050565b5f82610e3c57634e487b7160e01b5f52601260045260245ffd5b500490565b5f8060408385031215610e52575f80fd5b825167ffffffffffffffff80821115610e69575f80fd5b610e7586838701610c13565b93506020850151915080821115610e8a575f80fd5b50610e9785828601610d0d565b915050925092905056fea2646970667358221220aabc39bd38f6769a375ea7b467e8123a45d567a47b0f87e116c494d3828eef4f64736f6c63430008140033","linkReferences":{}},"methodIdentifiers":{"dETHToken()":"94c784e8","getLeaderboard(uint256)":"a34b46fe","getPaginatedStakersDetailed(uint256,uint256)":"4350f546","getStakerDetails(address)":"8fb80c73","getStakingActivity(uint256)":"325aa9e1","getStakingOverview()":"efc990d6","sETHToken()":"69755c32"},"id":1}