{"abi":[{"type":"constructor","inputs":[{"name":"_sETHToken","type":"address","internalType":"address payable"},{"name":"_dETHToken","type":"address","internalType":"address payable"}],"stateMutability":"nonpayable"},{"type":"function","name":"dETHToken","inputs":[],"outputs":[{"name":"","type":"address","internalType":"contract DepositETH"}],"stateMutability":"view"},{"type":"function","name":"getLeaderboard","inputs":[{"name":"count","type":"uint256","internalType":"uint256"}],"outputs":[{"name":"stakerAddresses","type":"address[]","internalType":"address[]"},{"name":"stakedAmounts","type":"uint256[]","internalType":"uint256[]"},{"name":"percentageOfTotal","type":"uint256[]","internalType":"uint256[]"}],"stateMutability":"view"},{"type":"function","name":"getPaginatedStakersDetailed","inputs":[{"name":"offset","type":"uint256","internalType":"uint256"},{"name":"limit","type":"uint256","internalType":"uint256"}],"outputs":[{"name":"stakers","type":"address[]","internalType":"address[]"},{"name":"amounts","type":"uint256[]","internalType":"uint256[]"},{"name":"timestamps","type":"uint256[]","internalType":"uint256[]"},{"name":"ranks","type":"uint256[]","internalType":"uint256[]"},{"name":"percentages","type":"uint256[]","internalType":"uint256[]"}],"stateMutability":"view"},{"type":"function","name":"getStakerDetails","inputs":[{"name":"staker","type":"address","internalType":"address"}],"outputs":[{"name":"stakedAmount","type":"uint256","internalType":"uint256"},{"name":"stakingTimestamp","type":"uint256","internalType":"uint256"},{"name":"rank","type":"uint256","internalType":"uint256"},{"name":"percentageOfTotal","type":"uint256","internalType":"uint256"}],"stateMutability":"view"},{"type":"function","name":"getStakingActivity","inputs":[{"name":"daysAgo","type":"uint256","internalType":"uint256"}],"outputs":[{"name":"activeStakers","type":"uint256","internalType":"uint256"},{"name":"recentStakers","type":"address[]","internalType":"address[]"}],"stateMutability":"view"},{"type":"function","name":"getStakingOverview","inputs":[],"outputs":[{"name":"totalETHDeposited","type":"uint256","internalType":"uint256"},{"name":"totalETHStaked","type":"uint256","internalType":"uint256"},{"name":"totalStakers","type":"uint256","internalType":"uint256"},{"name":"averageStakeAmount","type":"uint256","internalType":"uint256"}],"stateMutability":"view"},{"type":"function","name":"sETHToken","inputs":[],"outputs":[{"name":"","type":"address","internalType":"contract StakedETH"}],"stateMutability":"view"}],"bytecode":{"object":"0x60803461008c57601f610d1638819003918201601f19168301916001600160401b0383118484101761009057808492604094855283398101031261008c57610052602061004b836100a4565b92016100a4565b5f80546001600160a01b039384166001600160a01b03199182161790915560018054929093169116179055604051610c5d90816100b98239f35b5f80fd5b634e487b7160e01b5f52604160045260245ffd5b51906001600160a01b038216820361008c5756fe6080604081815260049081361015610015575f80fd5b5f92833560e01c908163325aa9e114610785575080634350f5461461053957806369755c32146105115780638fb80c73146103aa57806394c784e814610381578063a34b46fe146101905763efc990d61461006e575f80fd5b3461018c578260031936011261018c5760015481516318160ddd60e01b81529293906001600160a01b039060209085908790829085165afa93841561018257829461014a575b5081548351633077582160e21b81529560609287928391165afa9182156101405781948293610104575b5051928352602083019390935260408201929092526060810191909152608090f35b0390f35b909450610100925061012d915060603d8111610139575b6101258183610a54565b810190610a8a565b919491929091906100de565b503d61011b565b51903d90823e3d90fd5b9093506020813d821161017a575b8161016560209383610a54565b8101031261017657519260606100b4565b5080fd5b3d9150610158565b83513d84823e3d90fd5b8280fd5b50823461037e57602080600319360112610176578154835163640651cd60e11b8152853586820152946001600160a01b039091169290602482878281885afa9283156103735780978194610310575b50908291856101ee8a51610b8d565b978951958680926340bd8e6960e11b82525afa9384156103045781946102d1575b5083610251575b610237896101008a8a6102448b8b84519788976060895260608901906109e5565b9187830390880152610a21565b9184830390850152610a21565b92979093919496835b82518110156102b75761026d8185610be1565b51612710908181029181830414901517156102a557906102908b6102a093610c09565b61029a828b610be1565b52610bbf565b61025a565b634e487b7160e01b8652601188528686fd5b509097509593509150610244905082610100610237610216565b9093508581813d83116102fd575b6102e98183610a54565b810103126102f95751928961020f565b8380fd5b503d6102df565b508751903d90823e3d90fd5b975092503d8084893e6103238189610a54565b870186888203126102f957875167ffffffffffffffff9081811161036f578261034d918b01610ac1565b988681015191821161036f57916103679185949301610b2f565b9390916101df565b8580fd5b8651903d90823e3d90fd5b80fd5b83823461017657816003193601126101765760015490516001600160a01b039091168152602090f35b50823461037e57602036600319011261037e5782356001600160a01b03818116939184900361018c578254169181519363c345315360e01b855285850152606084602481865afa9081156105065780869194819682946104da575b506020908551938480926340bd8e6960e11b82525afa9182156104ce57819261049b575b50811561048c57612710908186029186830414861517156104795750610100949596509061045691610c09565b915b51948594859094939260609260808301968352602083015260408201520152565b634e487b7160e01b815260118852602490fd5b90506101009394955091610458565b9091506020813d82116104c6575b816104b660209383610a54565b8101031261017657519087610429565b3d91506104a9565b508351903d90823e3d90fd5b9093506104fa9196506020955060603d8111610139576101258183610a54565b96919590969390610405565b8251903d90823e3d90fd5b838234610176578160031936011261017657905490516001600160a01b039091168152602090f35b50823461037e578160031936011261037e57805482516338ba40e160e01b81528435858201526024803581830152936001600160a01b039092169291908281604481875afa9283156105065786819682809481976106e2575b50602061059f8a51610b8d565b9887519b8c80926340bd8e6960e11b82525afa998a156106d657819a61069f575b5089610626575b6105ef896101008a6106188b61060a8c8c6105fd8d83519a8b9a60a08c5260a08c01906109e5565b908a820360208c0152610a21565b9188830390890152610a21565b908582036060870152610a21565b908382036080850152610a21565b939791959094845b8351811015610685576106418186610be1565b516127109081810291818304149015171561067357906106648c61066e93610c09565b61029a828c610be1565b61062e565b634e487b7160e01b8752601189528787fd5b506105ef99509197909550909350915082826105fd6105c7565b9099506020813d82116106ce575b816106ba60209383610a54565b810103126106ca5751988a6105c0565b8980fd5b3d91506106ad565b508551903d90823e3d90fd5b94509550965050503d8084833e6106f98183610a54565b8101906080818303126102f95780519567ffffffffffffffff9687811161036f5783610726918401610ac1565b926020830151888111610781578161073f918501610b2f565b978584015181811161077d5782610757918601610b2f565b93606081015191821161077d5791610772918b949301610b2f565b93979293958a610592565b8780fd5b8680fd5b92919050346102f95760203660031901126102f9576201518082358181029181159183041417156109d2574203904282116109d2578454630dc9f11960e31b85526001600160a01b03939084169086868281855afa9586156109c8578796610984575b508694875b87518110156108875781610801828a610be1565b51865163c345315360e01b81529116848201526060908181602481895afa91821561087d57908892918c9261085d575b50501015610848575b61084390610bbf565b6107ed565b9561085561084391610bbf565b96905061083a565b6108739250803d10610139576101258183610a54565b5090505f80610831565b87513d8d823e3d90fd5b50938796919361089687610aa9565b936108a382519586610a54565b878552601f196108b289610aa9565b013660208701378895895b855181101561096b57886108d18288610be1565b51855163c345315360e01b81529116838201526060908181602481885afa918d831561096057908893929192610940575b50501015610919575b61091490610bbf565b6108bd565b96610938610914918a61092c8b8a610be1565b511661029a828b610be1565b97905061090b565b6109569250803d10610139576101258183610a54565b5090508d80610902565b8751903d90823e3d90fd5b83518a815260208101859052806101008187018a6109e5565b9095503d8088833e6109968183610a54565b810160208282031261077d57815167ffffffffffffffff81116109c4576109bd9201610ac1565b945f6107e8565b8880fd5b83513d89823e3d90fd5b634e487b7160e01b855260118352602485fd5b9081518082526020808093019301915f5b828110610a04575050505090565b83516001600160a01b0316855293810193928101926001016109f6565b9081518082526020808093019301915f5b828110610a40575050505090565b835185529381019392810192600101610a32565b90601f8019910116810190811067ffffffffffffffff821117610a7657604052565b634e487b7160e01b5f52604160045260245ffd5b90816060910312610aa5578051916040602083015192015190565b5f80fd5b67ffffffffffffffff8111610a765760051b60200190565b81601f82011215610aa557805191610ad883610aa9565b92610ae66040519485610a54565b808452602092838086019260051b820101928311610aa5578301905b828210610b10575050505090565b81516001600160a01b0381168103610aa5578152908301908301610b02565b81601f82011215610aa557805191610b4683610aa9565b92610b546040519485610a54565b808452602092838086019260051b820101928311610aa5578301905b828210610b7e575050505090565b81518152908301908301610b70565b90610b9782610aa9565b610ba46040519182610a54565b8281528092610bb5601f1991610aa9565b0190602036910137565b5f198114610bcd5760010190565b634e487b7160e01b5f52601160045260245ffd5b8051821015610bf55760209160051b010190565b634e487b7160e01b5f52603260045260245ffd5b8115610c13570490565b634e487b7160e01b5f52601260045260245ffdfea2646970667358221220503a59f551617bee37f6dbdf5ae6da8d795932de8a81119515b6f351ad8d69f564736f6c63430008140033","linkReferences":{}},"methodIdentifiers":{"dETHToken()":"94c784e8","getLeaderboard(uint256)":"a34b46fe","getPaginatedStakersDetailed(uint256,uint256)":"4350f546","getStakerDetails(address)":"8fb80c73","getStakingActivity(uint256)":"325aa9e1","getStakingOverview()":"efc990d6","sETHToken()":"69755c32"},"id":1}