{"abi":[{"type":"constructor","inputs":[{"name":"_sETHToken","type":"address","internalType":"address"}],"stateMutability":"nonpayable"},{"type":"function","name":"MAX_PROPOSAL","inputs":[],"outputs":[{"name":"","type":"uint256","internalType":"uint256"}],"stateMutability":"view"},{"type":"function","name":"allowedTargets","inputs":[{"name":"","type":"address","internalType":"address"}],"outputs":[{"name":"","type":"bool","internalType":"bool"}],"stateMutability":"view"},{"type":"function","name":"cancelProposal","inputs":[{"name":"proposalId","type":"uint256","internalType":"uint256"}],"outputs":[],"stateMutability":"nonpayable"},{"type":"function","name":"castVote","inputs":[{"name":"proposalId","type":"uint256","internalType":"uint256"},{"name":"support","type":"bool","internalType":"bool"}],"outputs":[],"stateMutability":"nonpayable"},{"type":"function","name":"createProposal","inputs":[{"name":"description","type":"string","internalType":"string"},{"name":"target","type":"address","internalType":"address"},{"name":"callData","type":"bytes","internalType":"bytes"}],"outputs":[{"name":"","type":"uint256","internalType":"uint256"}],"stateMutability":"nonpayable"},{"type":"function","name":"deleteExpiredProposals","inputs":[{"name":"proposalId","type":"uint256","internalType":"uint256"}],"outputs":[],"stateMutability":"nonpayable"},{"type":"function","name":"executeProposal","inputs":[{"name":"proposalId","type":"uint256","internalType":"uint256"}],"outputs":[],"stateMutability":"nonpayable"},{"type":"function","name":"executionDelay","inputs":[],"outputs":[{"name":"","type":"uint256","internalType":"uint256"}],"stateMutability":"view"},{"type":"function","name":"getProposalDescription","inputs":[{"name":"proposalId","type":"uint256","internalType":"uint256"}],"outputs":[{"name":"","type":"string","internalType":"string"}],"stateMutability":"view"},{"type":"function","name":"getProposalDetails","inputs":[{"name":"proposalId","type":"uint256","internalType":"uint256"}],"outputs":[{"name":"_proposer","type":"address","internalType":"address"},{"name":"_description","type":"string","internalType":"string"},{"name":"_createdAt","type":"uint256","internalType":"uint256"},{"name":"_votesFor","type":"uint256","internalType":"uint256"},{"name":"_votesAgainst","type":"uint256","internalType":"uint256"},{"name":"_executed","type":"bool","internalType":"bool"},{"name":"_canceled","type":"bool","internalType":"bool"},{"name":"_state","type":"uint8","internalType":"enum Governance.ProposalState"}],"stateMutability":"view"},{"type":"function","name":"getProposalProposer","inputs":[{"name":"proposalId","type":"uint256","internalType":"uint256"}],"outputs":[{"name":"","type":"address","internalType":"address"}],"stateMutability":"view"},{"type":"function","name":"getProposalState","inputs":[{"name":"proposalId","type":"uint256","internalType":"uint256"}],"outputs":[{"name":"","type":"uint8","internalType":"enum Governance.ProposalState"}],"stateMutability":"view"},{"type":"function","name":"getProposalVotes","inputs":[{"name":"proposalId","type":"uint256","internalType":"uint256"}],"outputs":[{"name":"votesFor","type":"uint256","internalType":"uint256"},{"name":"votesAgainst","type":"uint256","internalType":"uint256"}],"stateMutability":"view"},{"type":"function","name":"getVoteByUser","inputs":[{"name":"proposalId","type":"uint256","internalType":"uint256"},{"name":"voter","type":"address","internalType":"address"}],"outputs":[{"name":"","type":"uint8","internalType":"enum Governance.Vote"}],"stateMutability":"view"},{"type":"function","name":"gracePeriod","inputs":[],"outputs":[{"name":"","type":"uint256","internalType":"uint256"}],"stateMutability":"view"},{"type":"function","name":"owner","inputs":[],"outputs":[{"name":"","type":"address","internalType":"address"}],"stateMutability":"view"},{"type":"function","name":"proposalCount","inputs":[],"outputs":[{"name":"","type":"uint256","internalType":"uint256"}],"stateMutability":"view"},{"type":"function","name":"proposals","inputs":[{"name":"","type":"uint256","internalType":"uint256"}],"outputs":[{"name":"id","type":"uint256","internalType":"uint256"},{"name":"proposer","type":"address","internalType":"address"},{"name":"description","type":"string","internalType":"string"},{"name":"callData","type":"bytes","internalType":"bytes"},{"name":"target","type":"address","internalType":"address"},{"name":"createdAt","type":"uint256","internalType":"uint256"},{"name":"votesFor","type":"uint256","internalType":"uint256"},{"name":"votesAgainst","type":"uint256","internalType":"uint256"},{"name":"executed","type":"bool","internalType":"bool"},{"name":"canceled","type":"bool","internalType":"bool"}],"stateMutability":"view"},{"type":"function","name":"quorum","inputs":[],"outputs":[{"name":"","type":"uint256","internalType":"uint256"}],"stateMutability":"view"},{"type":"function","name":"renounceOwnership","inputs":[],"outputs":[],"stateMutability":"nonpayable"},{"type":"function","name":"sETHToken","inputs":[],"outputs":[{"name":"","type":"address","internalType":"contract StakedETH"}],"stateMutability":"view"},{"type":"function","name":"setTargetWhitelist","inputs":[{"name":"target","type":"address","internalType":"address"},{"name":"allowed","type":"bool","internalType":"bool"}],"outputs":[],"stateMutability":"nonpayable"},{"type":"function","name":"transferOwnership","inputs":[{"name":"newOwner","type":"address","internalType":"address"}],"outputs":[],"stateMutability":"nonpayable"},{"type":"function","name":"updateGovernanceParams","inputs":[{"name":"_votingPeriod","type":"uint256","internalType":"uint256"},{"name":"_executionDelay","type":"uint256","internalType":"uint256"},{"name":"_quorum","type":"uint256","internalType":"uint256"},{"name":"_gracePeriod","type":"uint256","internalType":"uint256"}],"outputs":[],"stateMutability":"nonpayable"},{"type":"function","name":"votingPeriod","inputs":[],"outputs":[{"name":"","type":"uint256","internalType":"uint256"}],"stateMutability":"view"},{"type":"event","name":"OwnershipTransferred","inputs":[{"name":"previousOwner","type":"address","indexed":true,"internalType":"address"},{"name":"newOwner","type":"address","indexed":true,"internalType":"address"}],"anonymous":false},{"type":"event","name":"ProposalCanceled","inputs":[{"name":"proposalId","type":"uint256","indexed":true,"internalType":"uint256"}],"anonymous":false},{"type":"event","name":"ProposalCreated","inputs":[{"name":"proposalId","type":"uint256","indexed":true,"internalType":"uint256"},{"name":"proposer","type":"address","indexed":true,"internalType":"address"},{"name":"description","type":"string","indexed":false,"internalType":"string"}],"anonymous":false},{"type":"event","name":"ProposalExecuted","inputs":[{"name":"proposalId","type":"uint256","indexed":true,"internalType":"uint256"}],"anonymous":false},{"type":"event","name":"TargetWhitelisted","inputs":[{"name":"target","type":"address","indexed":true,"internalType":"address"},{"name":"allowed","type":"bool","indexed":false,"internalType":"bool"}],"anonymous":false},{"type":"event","name":"VoteCast","inputs":[{"name":"voter","type":"address","indexed":true,"internalType":"address"},{"name":"proposalId","type":"uint256","indexed":true,"internalType":"uint256"},{"name":"support","type":"bool","indexed":false,"internalType":"bool"},{"name":"weight","type":"uint256","indexed":false,"internalType":"uint256"}],"anonymous":false},{"type":"error","name":"OwnableInvalidOwner","inputs":[{"name":"owner","type":"address","internalType":"address"}]},{"type":"error","name":"OwnableUnauthorizedAccount","inputs":[{"name":"account","type":"address","internalType":"address"}]},{"type":"error","name":"ReentrancyGuardReentrantCall","inputs":[]}],"bytecode":{"object":"0x6080346100e857601f61185538819003918201601f19168301916001600160401b038311848410176100ec578084926020946040528339810103126100e857516001600160a01b0390818116908190036100e85733156100d0575f5460018060a01b03199033828216175f55604051933391167f8be0079c531659141344cd1fd0a4f28419497f9722a3daafe3b4186f6b6457e05f80a3600180556203f4806004556202a30060055568056bc75e2d6310000060065562015180600755600254161760025561175490816101018239f35b604051631e4fbdf760e01b81525f6004820152602490fd5b5f80fd5b634e487b7160e01b5f52604160045260245ffdfe60c06040818152600480361015610014575f80fd5b5f92833560e01c908163013cf08b146112a25750806302a251a3146112855780630baf359c146110aa5780630d61b51914610e70578063108bdc1414610df357806315373e3d14610bba5780631703a01814610b9b578063229acb1714610b3f57806322c08f0314610b235780632821ff26146106995780633b4d01a7146105d257806347c66140146105915780635f90af2a1461054f5780636669f6c7146104db57806369755c32146104b25780636a05c8bb1461047e578063715018a6146104245780638b257989146104055780638da5cb5b146103dd5780639080936f146103ac578063a06db7dc1461038d578063b8fe8d5f1461034f578063da35c6641461032c578063e0a8f6f5146101bc5763f2fde38b14610133575f80fd5b346101b85760203660031901126101b85761014c6114bd565b906101556116d0565b6001600160a01b039182169283156101a257505082546001600160a01b0319811683178455167f8be0079c531659141344cd1fd0a4f28419497f9722a3daafe3b4186f6b6457e08380a380f35b51631e4fbdf760e01b8152908101849052602490fd5b8280fd5b5090346101b85760203660031901126101b857813591828452600860205281842090600882019283549260ff84166102e95760ff8460081c166102a65760010154336001600160a01b0391821614908115610299575b501561024c57505061ff0019166101001790557f789cf55be980739dad1d0699b93b58e806b51c9d96619bfa8fe0a28abaa7b30c8280a280f35b906020608492519162461bcd60e51b8352820152602160248201527f4f6e6c792070726f706f736572206f722061646d696e2063616e2063616e63656044820152601b60fa1b6064820152fd5b905086541633145f610212565b815162461bcd60e51b8152602081850152601960248201527f50726f706f73616c20616c72656164792063616e63656c6564000000000000006044820152606490fd5b815162461bcd60e51b8152602081850152601960248201527f50726f706f73616c20616c7265616479206578656375746564000000000000006044820152606490fd5b50503461034b578160031936011261034b576020906003549051908152f35b5080fd5b50503461034b57602036600319011261034b5760209160ff9082906001600160a01b0361037a6114bd565b1681526009855220541690519015158152f35b50503461034b578160031936011261034b576020906007549051908152f35b5091346103da5760203660031901126103da57506103d86103cf6020933561162d565b9151809261154e565bf35b80fd5b50503461034b578160031936011261034b57905490516001600160a01b039091168152602090f35b50503461034b578160031936011261034b576020906005549051908152f35b83346103da57806003193601126103da5761043d6116d0565b80546001600160a01b03198116825581906001600160a01b03167f8be0079c531659141344cd1fd0a4f28419497f9722a3daafe3b4186f6b6457e08280a380f35b83823461034b57608036600319011261034b576104996116d0565b8035905560243560055560443560065560643560075580f35b50503461034b578160031936011261034b5760025490516001600160a01b039091168152602090f35b5091903461034b578060031936011261034b5782356104f86114d7565b9061050660035482106115eb565b835260086020526009828420019060018060a01b0316835260205260ff8183205416905191600382101561053c57602083838152f35b634e487b7160e01b815260218452602490fd5b50346101b85760203660031901126101b857916020923561057360035482106115eb565b8152600883528190206001015490516001600160a01b039091168152f35b50346101b85760203660031901126101b857918192356105b460035482106115eb565b81526008602052206007600682015491015482519182526020820152f35b5091903461034b57602036600319011261034b576106958160029435936105fc60035486106115eb565b84815260086020522060ff60018060a01b03600183015416946005830154600684015460078501549161064d61063660088801549561162d565b966106468a51809d8193016113b8565b038b611449565b61066888519a8b9a8b526101008060208d01528b019061147f565b9789015260608801526080870152818116151560a087015260081c16151560c085015260e084019061154e565b0390f35b5090346101b85760603660031901126101b85767ffffffffffffffff918035838111610b1f5736602382011215610b1f576106de602491369083818601359101611518565b6080526106e96114d7565b93604435818111610b1b5736602382011215610b1b5761071190369084818701359101611518565b60025485516370a0823160e01b81523386820152602098929492916001600160a01b0391908a9082908690829086165afa8015610b11578390610adc575b670de0b6b3a7640000915010610a855760035497601e891015610a1d5716938482526009895260ff8783205416156109d1575f19928884146109c057600195868a0160035589845260088b528884208060a0528a81556002888201916bffffffffffffffffffffffff60a01b92338482541617905501608051518881116109ae576107e4816107de8454611380565b84611585565b8d80601f831160011461093857509080600395949392899161092b575b5089828d1b92871b1c19161790555b60a051918a8301918254161790550196825195861161091a57505061083f846108398854611380565b88611585565b8891601f85116001146108ba57918495918593956108af575b50501b9260031b1c19161790555b42600560a05101558051838152827f7585f467599d0f008985f231af99293be388626ac16ca59505c2f8f88969cd633392806108a688820160805161147f565b0390a351908152f35b015193505f80610858565b92919084601f1981168886528b8620955b8c8983831061090357505050106108eb575b50505050811b019055610866565b01519060f88460031b161c191690555f8080806108dd565b8686015189559097019694850194889350016108cb565b634e487b7160e01b84526041905282fd5b905060805101515f610801565b949392918b91601f19821690848b52878b20918b608051995b828210610988575050978360039910610972575b505050811b019055610810565b01518b60f8848a1b161c191690555f8080610965565b83968b958294958394989a9b9c9d0151815501960194018f959399989796949291610951565b634e487b7160e01b875260418b528487fd5b634e487b7160e01b83526011875282fd5b865162461bcd60e51b81528087018a90526021818501527f5461726765742061646472657373206973206e6f742077686974656c697374656044820152601960fa1b6064820152608490fd5b875162461bcd60e51b81528088018b90526039818601527f43616e6e6f742063726561746520616e6f746865722070726f706f73616c206d60448201527f6178206c696d697420686173206265656e2072656163686564000000000000006064820152608490fd5b865162461bcd60e51b81528087018a9052602c818501527f4d7573742068617665206174206c656173742031207345544820746f2063726560448201526b185d19481c1c9bdc1bdcd85b60a21b6064820152608490fd5b508981813d8311610b0a575b610af28183611449565b810103126101b857670de0b6b3a7640000905161074f565b503d610ae8565b88513d85823e3d90fd5b8680fd5b8480fd5b50503461034b578160031936011261034b5760209051601e8152f35b50346101b85760203660031901126101b85790610b8960028261069595610b829535610b6e60035482106115eb565b8152600860205220018251938480926113b8565b0383611449565b5191829160208352602083019061147f565b50503461034b578160031936011261034b576020906006549051908152f35b50346101b857816003193601126101b857803591610bd66114ed565b91610bdf6116fb565b610be88461162d565b6006811015610de057610da85783855260209060088252828620600981019133885282845260ff85892054166003811015610d9557610d625760025485516370a0823160e01b8152338184015294939291908490869060249082906001600160a01b03165afa948515610d58578995610d25575b508415610cf057507f877856338e13f63d0c36822ff0ef736b80934cd90574a3a5bc9262c39d217c4694939291908615610cc857600601610c9e8482546115ca565b90553388528152828720805460ff191660011790555b825194151585528401523392a36001805580f35b600701610cd68482546115ca565b90553388528152828720805460ff19166002179055610cb4565b855162461bcd60e51b8152908101849052600f60248201526e2737903b37ba34b733903837bbb2b960891b6044820152606490fd5b9094508381813d8311610d51575b610d3d8183611449565b81010312610d4d5751935f610c5c565b8880fd5b503d610d33565b86513d8b823e3d90fd5b845162461bcd60e51b8152908101849052600d60248201526c105b1c9958591e481d9bdd1959609a1b6044820152606490fd5b634e487b7160e01b895260218252602489fd5b6020606492519162461bcd60e51b8352820152601360248201527250726f706f73616c206e6f742061637469766560681b6044820152fd5b634e487b7160e01b865260218252602486fd5b50503461034b578060031936011261034b577ff6c76eeb7c8ff50ae11742b7c9c659668fd5450291aa2e196914e251b7786abe6020610e306114bd565b610e386114ed565b90610e416116d0565b6001600160a01b031680865260098352848620805460ff191692151560ff81169390931790559351908152a280f35b50346101b857602090816003193601126110a657803591610e8f6116fb565b610e988361162d565b600681101561109357600203611051578285526008815283852093610edb610ed2610ec960058801548654906115ca565b600554906115ca565b600754906115ca565b421161101957600885018660019660ff19928884825416179055600360018060a01b03878301541691019284519083948054610f1681611380565b92818d16918215611005575050600114610fd2575b50508281819503925af13d15610fcd573d610f45816114fc565b90610f5284519283611449565b815287843d92013e5b15610f8c575050507f712ae1383f79ac853f8d882153778e0260ef8f03b504e2866e0593e04d2b291f8380a2805580f35b5162461bcd60e51b815291820152601960248201527f50726f706f73616c20657865637574696f6e206661696c656400000000000000604482015260649150fd5b610f5b565b84528684209450835b878b838310610ff257505050810193508281610f2b565b875483860152909601958c955001610fdb565b168452505080151502810193508281610f2b565b5162461bcd60e51b8152918201526014602482015273141c9bdc1bdcd85b081a185cc8195e1c1a5c995960621b604482015260649150fd5b835162461bcd60e51b815291820152601f60248201527f50726f706f73616c206e6f7420696e2073756363656564656420737461746500604482015260649150fd5b634e487b7160e01b865260218352602486fd5b8380fd5b5091903461034b57602090816003193601126101b85783356110cb8161162d565b600681101561127257850361123857808452600883526008828520015460ff8116159081611229575b50156111db57839484600894938193825285855281209381855581600186015581600286016111238154611380565b8061119f575b505050600385019061113b8254611380565b9081611160575b50505050820155826005820155826006820155826007820155015580f35b8390601f831160011461117b57505050555b815f8080611142565b838252812092909161119890601f0160051c84016001850161156f565b5555611172565b82601f82116001146111b7575050555b815f80611129565b90918082526111d4601f868420940160051c84016001850161156f565b55556111af565b815162461bcd60e51b8152808601849052602260248201527f43616e6e6f742064656c657465206578656375746564206f722063616e63656c604482015261195960f21b6064820152608490fd5b60ff915060081c16155f6110f4565b815162461bcd60e51b81528086018490526014602482015273141c9bdc1bdcd85b081b9bdd08195e1c1a5c995960621b6044820152606490fd5b634e487b7160e01b855260218652602485fd5b50346101b857826003193601126101b85760209250549051908152f35b939050346103da5760203660031901126103da578260ff91833581526008602052209283549360018060a01b039586600183015416966112e982610b8281600287016113b8565b835195611304876112fd81600388016113b8565b0388611449565b8301541694611350600584015491611342600686015494600860078801549701549780519c8d9c8d5260208d015261014080918d01528b019061147f565b9089820360608b015261147f565b95608088015260a087015260c086015260e0850152818116151561010085015260081c1615156101208301520390f35b90600182811c921680156113ae575b602083101461139a57565b634e487b7160e01b5f52602260045260245ffd5b91607f169161138f565b905f92918054916113c883611380565b9182825260019384811690815f1461142657506001146113e9575b50505050565b90919394505f52602092835f2092845f945b83861061141257505050500101905f8080806113e3565b8054858701830152940193859082016113fb565b9294505050602093945060ff191683830152151560051b0101905f8080806113e3565b90601f8019910116810190811067ffffffffffffffff82111761146b57604052565b634e487b7160e01b5f52604160045260245ffd5b91908251928382525f5b8481106114a9575050825f602080949584010152601f8019910116010190565b602081830181015184830182015201611489565b600435906001600160a01b03821682036114d357565b5f80fd5b602435906001600160a01b03821682036114d357565b6024359081151582036114d357565b67ffffffffffffffff811161146b57601f01601f191660200190565b929192611524826114fc565b916115326040519384611449565b8294818452818301116114d3578281602093845f960137010152565b90600682101561155b5752565b634e487b7160e01b5f52602160045260245ffd5b81811061157a575050565b5f815560010161156f565b9190601f811161159457505050565b6115be925f5260205f20906020601f840160051c830193106115c0575b601f0160051c019061156f565b565b90915081906115b1565b919082018092116115d757565b634e487b7160e01b5f52601160045260245ffd5b156115f257565b60405162461bcd60e51b8152602060048201526013602482015272125b9d985b1a59081c1c9bdc1bdcd85b081251606a1b6044820152606490fd5b61163a60035482106115eb565b5f52600860205260405f20600881015460ff8160081c166116c95760ff166116c3576005810154600454611671610ec982846115ca565b42116116bb57611680916115ca565b4211156116b65760076006820154910154811190816116a9575b506116a457600190565b600290565b905060065411155f61169a565b505f90565b505050600490565b50600390565b5050600590565b5f546001600160a01b031633036116e357565b60405163118cdaa760e01b8152336004820152602490fd5b60026001541461170c576002600155565b604051633ee5aeb560e01b8152600490fdfea26469706673582212201138595b43d54e1b047eb59fcf03c5db2a492a2f1c04d6c448cc44dd7d8c8d9a64736f6c63430008140033","linkReferences":{}},"methodIdentifiers":{"MAX_PROPOSAL()":"22c08f03","allowedTargets(address)":"b8fe8d5f","cancelProposal(uint256)":"e0a8f6f5","castVote(uint256,bool)":"15373e3d","createProposal(string,address,bytes)":"2821ff26","deleteExpiredProposals(uint256)":"0baf359c","executeProposal(uint256)":"0d61b519","executionDelay()":"8b257989","getProposalDescription(uint256)":"229acb17","getProposalDetails(uint256)":"3b4d01a7","getProposalProposer(uint256)":"5f90af2a","getProposalState(uint256)":"9080936f","getProposalVotes(uint256)":"47c66140","getVoteByUser(uint256,address)":"6669f6c7","gracePeriod()":"a06db7dc","owner()":"8da5cb5b","proposalCount()":"da35c664","proposals(uint256)":"013cf08b","quorum()":"1703a018","renounceOwnership()":"715018a6","sETHToken()":"69755c32","setTargetWhitelist(address,bool)":"108bdc14","transferOwnership(address)":"f2fde38b","updateGovernanceParams(uint256,uint256,uint256,uint256)":"6a05c8bb","votingPeriod()":"02a251a3"},"id":0}