{"abi":[{"type":"constructor","inputs":[{"name":"_sETHToken","type":"address","internalType":"address"}],"stateMutability":"nonpayable"},{"type":"function","name":"MAX_PROPOSAL","inputs":[],"outputs":[{"name":"","type":"uint256","internalType":"uint256"}],"stateMutability":"view"},{"type":"function","name":"allowedTargets","inputs":[{"name":"","type":"address","internalType":"address"}],"outputs":[{"name":"","type":"bool","internalType":"bool"}],"stateMutability":"view"},{"type":"function","name":"cancelProposal","inputs":[{"name":"proposalId","type":"uint256","internalType":"uint256"}],"outputs":[],"stateMutability":"nonpayable"},{"type":"function","name":"castVote","inputs":[{"name":"proposalId","type":"uint256","internalType":"uint256"},{"name":"support","type":"bool","internalType":"bool"}],"outputs":[],"stateMutability":"nonpayable"},{"type":"function","name":"createProposal","inputs":[{"name":"description","type":"string","internalType":"string"},{"name":"target","type":"address","internalType":"address"},{"name":"callData","type":"bytes","internalType":"bytes"}],"outputs":[{"name":"","type":"uint256","internalType":"uint256"}],"stateMutability":"nonpayable"},{"type":"function","name":"deleteExpiredProposals","inputs":[{"name":"proposalId","type":"uint256","internalType":"uint256"}],"outputs":[],"stateMutability":"nonpayable"},{"type":"function","name":"executeProposal","inputs":[{"name":"proposalId","type":"uint256","internalType":"uint256"}],"outputs":[],"stateMutability":"nonpayable"},{"type":"function","name":"executionDelay","inputs":[],"outputs":[{"name":"","type":"uint256","internalType":"uint256"}],"stateMutability":"view"},{"type":"function","name":"getProposalDescription","inputs":[{"name":"proposalId","type":"uint256","internalType":"uint256"}],"outputs":[{"name":"","type":"string","internalType":"string"}],"stateMutability":"view"},{"type":"function","name":"getProposalDetails","inputs":[{"name":"proposalId","type":"uint256","internalType":"uint256"}],"outputs":[{"name":"","type":"tuple","internalType":"struct Governance.ProposalDetails","components":[{"name":"proposer","type":"address","internalType":"address"},{"name":"description","type":"string","internalType":"string"},{"name":"createdAt","type":"uint256","internalType":"uint256"},{"name":"votesFor","type":"uint256","internalType":"uint256"},{"name":"votesAgainst","type":"uint256","internalType":"uint256"},{"name":"executed","type":"bool","internalType":"bool"},{"name":"canceled","type":"bool","internalType":"bool"},{"name":"state","type":"uint8","internalType":"enum Governance.ProposalState"}]}],"stateMutability":"view"},{"type":"function","name":"getProposalProposer","inputs":[{"name":"proposalId","type":"uint256","internalType":"uint256"}],"outputs":[{"name":"","type":"address","internalType":"address"}],"stateMutability":"view"},{"type":"function","name":"getProposalState","inputs":[{"name":"proposalId","type":"uint256","internalType":"uint256"}],"outputs":[{"name":"","type":"uint8","internalType":"enum Governance.ProposalState"}],"stateMutability":"view"},{"type":"function","name":"getProposalVotes","inputs":[{"name":"proposalId","type":"uint256","internalType":"uint256"}],"outputs":[{"name":"votesFor","type":"uint256","internalType":"uint256"},{"name":"votesAgainst","type":"uint256","internalType":"uint256"}],"stateMutability":"view"},{"type":"function","name":"getVoteByUser","inputs":[{"name":"proposalId","type":"uint256","internalType":"uint256"},{"name":"voter","type":"address","internalType":"address"}],"outputs":[{"name":"","type":"uint8","internalType":"enum Governance.Vote"}],"stateMutability":"view"},{"type":"function","name":"gracePeriod","inputs":[],"outputs":[{"name":"","type":"uint256","internalType":"uint256"}],"stateMutability":"view"},{"type":"function","name":"owner","inputs":[],"outputs":[{"name":"","type":"address","internalType":"address"}],"stateMutability":"view"},{"type":"function","name":"proposalCount","inputs":[],"outputs":[{"name":"","type":"uint256","internalType":"uint256"}],"stateMutability":"view"},{"type":"function","name":"proposals","inputs":[{"name":"","type":"uint256","internalType":"uint256"}],"outputs":[{"name":"id","type":"uint256","internalType":"uint256"},{"name":"proposer","type":"address","internalType":"address"},{"name":"description","type":"string","internalType":"string"},{"name":"callData","type":"bytes","internalType":"bytes"},{"name":"target","type":"address","internalType":"address"},{"name":"createdAt","type":"uint256","internalType":"uint256"},{"name":"votesFor","type":"uint256","internalType":"uint256"},{"name":"votesAgainst","type":"uint256","internalType":"uint256"},{"name":"executed","type":"bool","internalType":"bool"},{"name":"canceled","type":"bool","internalType":"bool"}],"stateMutability":"view"},{"type":"function","name":"quorum","inputs":[],"outputs":[{"name":"","type":"uint256","internalType":"uint256"}],"stateMutability":"view"},{"type":"function","name":"renounceOwnership","inputs":[],"outputs":[],"stateMutability":"nonpayable"},{"type":"function","name":"sETHToken","inputs":[],"outputs":[{"name":"","type":"address","internalType":"contract StakedETH"}],"stateMutability":"view"},{"type":"function","name":"setTargetWhitelist","inputs":[{"name":"target","type":"address","internalType":"address"},{"name":"allowed","type":"bool","internalType":"bool"}],"outputs":[],"stateMutability":"nonpayable"},{"type":"function","name":"transferOwnership","inputs":[{"name":"newOwner","type":"address","internalType":"address"}],"outputs":[],"stateMutability":"nonpayable"},{"type":"function","name":"updateGovernanceParams","inputs":[{"name":"_votingPeriod","type":"uint256","internalType":"uint256"},{"name":"_executionDelay","type":"uint256","internalType":"uint256"},{"name":"_quorum","type":"uint256","internalType":"uint256"},{"name":"_gracePeriod","type":"uint256","internalType":"uint256"}],"outputs":[],"stateMutability":"nonpayable"},{"type":"function","name":"votingPeriod","inputs":[],"outputs":[{"name":"","type":"uint256","internalType":"uint256"}],"stateMutability":"view"},{"type":"event","name":"OwnershipTransferred","inputs":[{"name":"previousOwner","type":"address","indexed":true,"internalType":"address"},{"name":"newOwner","type":"address","indexed":true,"internalType":"address"}],"anonymous":false},{"type":"event","name":"ProposalCanceled","inputs":[{"name":"proposalId","type":"uint256","indexed":true,"internalType":"uint256"}],"anonymous":false},{"type":"event","name":"ProposalCreated","inputs":[{"name":"proposalId","type":"uint256","indexed":true,"internalType":"uint256"},{"name":"proposer","type":"address","indexed":true,"internalType":"address"},{"name":"description","type":"string","indexed":false,"internalType":"string"}],"anonymous":false},{"type":"event","name":"ProposalExecuted","inputs":[{"name":"proposalId","type":"uint256","indexed":true,"internalType":"uint256"}],"anonymous":false},{"type":"event","name":"TargetWhitelisted","inputs":[{"name":"target","type":"address","indexed":true,"internalType":"address"},{"name":"allowed","type":"bool","indexed":false,"internalType":"bool"}],"anonymous":false},{"type":"event","name":"VoteCast","inputs":[{"name":"voter","type":"address","indexed":true,"internalType":"address"},{"name":"proposalId","type":"uint256","indexed":true,"internalType":"uint256"},{"name":"support","type":"bool","indexed":false,"internalType":"bool"},{"name":"weight","type":"uint256","indexed":false,"internalType":"uint256"}],"anonymous":false},{"type":"error","name":"OwnableInvalidOwner","inputs":[{"name":"owner","type":"address","internalType":"address"}]},{"type":"error","name":"OwnableUnauthorizedAccount","inputs":[{"name":"account","type":"address","internalType":"address"}]},{"type":"error","name":"ReentrancyGuardReentrantCall","inputs":[]}],"bytecode":{"object":"0x60806040526203f4806004556202a30060055568056bc75e2d631000006006556201518060075534801562000032575f80fd5b5060405162001c0a38038062001c0a833981016040819052620000559162000100565b33806200007b57604051631e4fbdf760e01b81525f600482015260240160405180910390fd5b6200008681620000b1565b5060018055600280546001600160a01b0319166001600160a01b03929092169190911790556200012f565b5f80546001600160a01b038381166001600160a01b0319831681178455604051919092169283917f8be0079c531659141344cd1fd0a4f28419497f9722a3daafe3b4186f6b6457e09190a35050565b5f6020828403121562000111575f80fd5b81516001600160a01b038116811462000128575f80fd5b9392505050565b611acd806200013d5f395ff3fe608060405234801561000f575f80fd5b506004361061016d575f3560e01c80635f90af2a116100d95780638da5cb5b11610093578063b8fe8d5f1161006e578063b8fe8d5f1461034f578063da35c66414610381578063e0a8f6f51461038a578063f2fde38b1461039d575f80fd5b80638da5cb5b146103165780639080936f14610326578063a06db7dc14610346575f80fd5b80635f90af2a146102945780636669f6c7146102bf57806369755c32146102df5780636a05c8bb146102f2578063715018a6146103055780638b2579891461030d575f80fd5b80631703a0181161012a5780631703a01814610208578063229acb171461021157806322c08f03146102315780632821ff26146102395780633b4d01a71461024c57806347c661401461026c575f80fd5b8063013cf08b1461017157806302a251a3146101a35780630baf359c146101ba5780630d61b519146101cf578063108bdc14146101e257806315373e3d146101f5575b5f80fd5b61018461017f366004611493565b6103b0565b60405161019a9a999897969594939291906114ed565b60405180910390f35b6101ac60045481565b60405190815260200161019a565b6101cd6101c8366004611493565b610523565b005b6101cd6101dd366004611493565b61068b565b6101cd6101f0366004611590565b610874565b6101cd6102033660046115c1565b6108da565b6101ac60065481565b61022461021f366004611493565b610b1d565b60405161019a91906115e2565b6101ac601e81565b6101ac610247366004611682565b610bde565b61025f61025a366004611493565b610e61565b60405161019a9190611742565b61027f61027a366004611493565b610fac565b6040805192835260208301919091520161019a565b6102a76102a2366004611493565b610fed565b6040516001600160a01b03909116815260200161019a565b6102d26102cd3660046117cf565b61102d565b60405161019a91906117f0565b6002546102a7906001600160a01b031681565b6101cd61030036600461180a565b61107f565b6101cd61109b565b6101ac60055481565b5f546001600160a01b03166102a7565b610339610334366004611493565b6110ae565b60405161019a9190611839565b6101ac60075481565b61037161035d366004611847565b60096020525f908152604090205460ff1681565b604051901515815260200161019a565b6101ac60035481565b6101cd610398366004611493565b611193565b6101cd6103ab366004611847565b61130a565b60086020525f908152604090208054600182015460028301805492936001600160a01b03909216926103e190611860565b80601f016020809104026020016040519081016040528092919081815260200182805461040d90611860565b80156104585780601f1061042f57610100808354040283529160200191610458565b820191905f5260205f20905b81548152906001019060200180831161043b57829003601f168201915b50505050509080600301805461046d90611860565b80601f016020809104026020016040519081016040528092919081815260200182805461049990611860565b80156104e45780601f106104bb576101008083540402835291602001916104e4565b820191905f5260205f20905b8154815290600101906020018083116104c757829003601f168201915b505050600484015460058501546006860154600787015460089097015495966001600160a01b0390931695919450925060ff808216916101009004168a565b600461052e826110ae565b600581111561053f5761053f61171a565b146105885760405162461bcd60e51b8152602060048201526014602482015273141c9bdc1bdcd85b081b9bdd08195e1c1a5c995960621b60448201526064015b60405180910390fd5b5f818152600860208190526040909120015460ff161580156105c157505f8181526008602081905260409091200154610100900460ff16155b6106185760405162461bcd60e51b815260206004820152602260248201527f43616e6e6f742064656c657465206578656375746564206f722063616e63656c604482015261195960f21b606482015260840161057f565b5f8181526008602052604081208181556001810180546001600160a01b03191690559061064860028301826113e9565b610655600383015f6113e9565b506004810180546001600160a01b03191690555f60058201819055600682018190556007820155600801805461ffff1916905550565b610693611344565b600261069e826110ae565b60058111156106af576106af61171a565b146106fc5760405162461bcd60e51b815260206004820152601f60248201527f50726f706f73616c206e6f7420696e2073756363656564656420737461746500604482015260640161057f565b5f81815260086020526040902060075460058054600454918401549091610722916118ac565b61072c91906118ac565b61073691906118ac565b42111561077c5760405162461bcd60e51b8152602060048201526014602482015273141c9bdc1bdcd85b081a185cc8195e1c1a5c995960621b604482015260640161057f565b60088101805460ff1916600117905560048101546040515f916001600160a01b0316906107ad9060038501906118bf565b5f604051808303815f865af19150503d805f81146107e6576040519150601f19603f3d011682016040523d82523d5f602084013e6107eb565b606091505b505090508061083c5760405162461bcd60e51b815260206004820152601960248201527f50726f706f73616c20657865637574696f6e206661696c656400000000000000604482015260640161057f565b60405183907f712ae1383f79ac853f8d882153778e0260ef8f03b504e2866e0593e04d2b291f905f90a2505061087160018055565b50565b61087c61136e565b6001600160a01b0382165f81815260096020908152604091829020805460ff191685151590811790915591519182527ff6c76eeb7c8ff50ae11742b7c9c659668fd5450291aa2e196914e251b7786abe910160405180910390a25050565b6108e2611344565b5f6108ec836110ae565b60058111156108fd576108fd61171a565b146109405760405162461bcd60e51b815260206004820152601360248201527250726f706f73616c206e6f742061637469766560681b604482015260640161057f565b5f82815260086020526040812090335f90815260098301602052604090205460ff1660028111156109735761097361171a565b146109b05760405162461bcd60e51b815260206004820152600d60248201526c105b1c9958591e481d9bdd1959609a1b604482015260640161057f565b6002546040516370a0823160e01b81523360048201525f916001600160a01b0316906370a0823190602401602060405180830381865afa1580156109f6573d5f803e3d5ffd5b505050506040513d601f19601f82011682018060405250810190610a1a9190611931565b90505f8111610a5d5760405162461bcd60e51b815260206004820152600f60248201526e2737903b37ba34b733903837bbb2b960891b604482015260640161057f565b8215610a9b5780826006015f828254610a7691906118ac565b9091555050335f9081526009830160205260409020805460ff19166001179055610acf565b80826007015f828254610aae91906118ac565b9091555050335f9081526009830160205260409020805460ff191660021790555b60408051841515815260208101839052859133917f877856338e13f63d0c36822ff0ef736b80934cd90574a3a5bc9262c39d217c46910160405180910390a35050610b1960018055565b5050565b60606003548210610b405760405162461bcd60e51b815260040161057f90611948565b5f8281526008602052604090206002018054610b5b90611860565b80601f0160208091040260200160405190810160405280929190818152602001828054610b8790611860565b8015610bd25780601f10610ba957610100808354040283529160200191610bd2565b820191905f5260205f20905b815481529060010190602001808311610bb557829003601f168201915b50505050509050919050565b6002546040516370a0823160e01b81523360048201525f91670de0b6b3a7640000916001600160a01b03909116906370a0823190602401602060405180830381865afa158015610c30573d5f803e3d5ffd5b505050506040513d601f19601f82011682018060405250810190610c549190611931565b1015610cb75760405162461bcd60e51b815260206004820152602c60248201527f4d7573742068617665206174206c656173742031207345544820746f2063726560448201526b185d19481c1c9bdc1bdcd85b60a21b606482015260840161057f565b601e60035410610d2f5760405162461bcd60e51b815260206004820152603960248201527f43616e6e6f742063726561746520616e6f746865722070726f706f73616c206d60448201527f6178206c696d697420686173206265656e207265616368656400000000000000606482015260840161057f565b6001600160a01b0383165f9081526009602052604090205460ff16610da05760405162461bcd60e51b815260206004820152602160248201527f5461726765742061646472657373206973206e6f742077686974656c697374656044820152601960fa1b606482015260840161057f565b600380545f9182610db083611975565b909155505f8181526008602052604090208181556001810180546001600160a01b0319163317905590915060028101610de987826119db565b506004810180546001600160a01b0319166001600160a01b03871617905560038101610e1585826119db565b50426005820155604051339083907f7585f467599d0f008985f231af99293be388626ac16ca59505c2f8f88969cd6390610e50908a906115e2565b60405180910390a350949350505050565b610e69611420565b6003548210610e8a5760405162461bcd60e51b815260040161057f90611948565b5f8281526008602090815260408083208151610100810190925260018101546001600160a01b03168252600281018054919493830191610ec990611860565b80601f0160208091040260200160405190810160405280929190818152602001828054610ef590611860565b8015610f405780601f10610f1757610100808354040283529160200191610f40565b820191905f5260205f20905b815481529060010190602001808311610f2357829003601f168201915b5050509183525050600584015460208201526006840154604082015260078401546060820152600884015460ff8082161515608084015261010090910416151560a082015260c001610f91866110ae565b6005811115610fa257610fa261171a565b9052949350505050565b5f806003548310610fcf5760405162461bcd60e51b815260040161057f90611948565b50505f90815260086020526040902060068101546007909101549091565b5f600354821061100f5760405162461bcd60e51b815260040161057f90611948565b505f908152600860205260409020600101546001600160a01b031690565b5f600354831061104f5760405162461bcd60e51b815260040161057f90611948565b505f8281526008602090815260408083206001600160a01b038516845260090190915290205460ff165b92915050565b61108761136e565b600493909355600591909155600655600755565b6110a361136e565b6110ac5f61139a565b565b5f60035482106110d05760405162461bcd60e51b815260040161057f90611948565b5f82815260086020819052604090912090810154610100900460ff16156110fa5750600592915050565b600881015460ff16156111105750600392915050565b600554600454826005015461112591906118ac565b61112f91906118ac565b42111561113f5750600492915050565b600454816005015461115191906118ac565b421161115f57505f92915050565b8060070154816006015411801561117c5750600654816006015410155b1561118a5750600292915050565b50600192915050565b5f8181526008602081905260409091209081015460ff16156111f75760405162461bcd60e51b815260206004820152601960248201527f50726f706f73616c20616c726561647920657865637574656400000000000000604482015260640161057f565b6008810154610100900460ff16156112515760405162461bcd60e51b815260206004820152601960248201527f50726f706f73616c20616c72656164792063616e63656c656400000000000000604482015260640161057f565b60018101546001600160a01b031633148061127557505f546001600160a01b031633145b6112cb5760405162461bcd60e51b815260206004820152602160248201527f4f6e6c792070726f706f736572206f722061646d696e2063616e2063616e63656044820152601b60fa1b606482015260840161057f565b60088101805461ff00191661010017905560405182907f789cf55be980739dad1d0699b93b58e806b51c9d96619bfa8fe0a28abaa7b30c905f90a25050565b61131261136e565b6001600160a01b03811661133b57604051631e4fbdf760e01b81525f600482015260240161057f565b6108718161139a565b60026001540361136757604051633ee5aeb560e01b815260040160405180910390fd5b6002600155565b5f546001600160a01b031633146110ac5760405163118cdaa760e01b815233600482015260240161057f565b5f80546001600160a01b038381166001600160a01b0319831681178455604051919092169283917f8be0079c531659141344cd1fd0a4f28419497f9722a3daafe3b4186f6b6457e09190a35050565b5080546113f590611860565b5f825580601f10611404575050565b601f0160209004905f5260205f2090810190610871919061147b565b6040518061010001604052805f6001600160a01b03168152602001606081526020015f81526020015f81526020015f81526020015f151581526020015f151581526020015f60058111156114765761147661171a565b905290565b5b8082111561148f575f815560010161147c565b5090565b5f602082840312156114a3575f80fd5b5035919050565b5f81518084525f5b818110156114ce576020818501810151868301820152016114b2565b505f602082860101526020601f19601f83011685010191505092915050565b8a81526001600160a01b038a81166020830152610140604083018190525f916115188483018d6114aa565b9150838203606085015261152c828c6114aa565b99166080840152505060a081019590955260c085019390935260e08401919091521515610100830152151561012090910152949350505050565b80356001600160a01b038116811461157c575f80fd5b919050565b8035801515811461157c575f80fd5b5f80604083850312156115a1575f80fd5b6115aa83611566565b91506115b860208401611581565b90509250929050565b5f80604083850312156115d2575f80fd5b823591506115b860208401611581565b602081525f6115f460208301846114aa565b9392505050565b634e487b7160e01b5f52604160045260245ffd5b5f67ffffffffffffffff80841115611629576116296115fb565b604051601f8501601f19908116603f01168101908282118183101715611651576116516115fb565b81604052809350858152868686011115611669575f80fd5b858560208301375f602087830101525050509392505050565b5f805f60608486031215611694575f80fd5b833567ffffffffffffffff808211156116ab575f80fd5b818601915086601f8301126116be575f80fd5b6116cd8783356020850161160f565b94506116db60208701611566565b935060408601359150808211156116f0575f80fd5b508401601f81018613611701575f80fd5b6117108682356020840161160f565b9150509250925092565b634e487b7160e01b5f52602160045260245ffd5b6006811061173e5761173e61171a565b9052565b602080825282516001600160a01b031682820152820151610100604083018190525f91906117746101208501836114aa565b91506040850151606085015260608501516080850152608085015160a085015260a0850151151560c085015260c08501516117b360e086018215159052565b5060e08501516117c58286018261172e565b5090949350505050565b5f80604083850312156117e0575f80fd5b823591506115b860208401611566565b60208101600383106118045761180461171a565b91905290565b5f805f806080858703121561181d575f80fd5b5050823594602084013594506040840135936060013592509050565b60208101611079828461172e565b5f60208284031215611857575f80fd5b6115f482611566565b600181811c9082168061187457607f821691505b60208210810361189257634e487b7160e01b5f52602260045260245ffd5b50919050565b634e487b7160e01b5f52601160045260245ffd5b8082018082111561107957611079611898565b5f8083546118cc81611860565b600182811680156118e457600181146118f957611925565b60ff1984168752821515830287019450611925565b875f526020805f205f5b8581101561191c5781548a820152908401908201611903565b50505082870194505b50929695505050505050565b5f60208284031215611941575f80fd5b5051919050565b602080825260139082015272125b9d985b1a59081c1c9bdc1bdcd85b081251606a1b604082015260600190565b5f6001820161198657611986611898565b5060010190565b601f8211156119d6575f81815260208120601f850160051c810160208610156119b35750805b601f850160051c820191505b818110156119d2578281556001016119bf565b5050505b505050565b815167ffffffffffffffff8111156119f5576119f56115fb565b611a0981611a038454611860565b8461198d565b602080601f831160018114611a3c575f8415611a255750858301515b5f19600386901b1c1916600185901b1785556119d2565b5f85815260208120601f198616915b82811015611a6a57888601518255948401946001909101908401611a4b565b5085821015611a8757878501515f19600388901b60f8161c191681555b5050505050600190811b0190555056fea2646970667358221220edf0f155da4b979a6cb9e32b9ecbc6585a701d0afbdba6a700325609619efaa464736f6c63430008140033","linkReferences":{}},"methodIdentifiers":{"MAX_PROPOSAL()":"22c08f03","allowedTargets(address)":"b8fe8d5f","cancelProposal(uint256)":"e0a8f6f5","castVote(uint256,bool)":"15373e3d","createProposal(string,address,bytes)":"2821ff26","deleteExpiredProposals(uint256)":"0baf359c","executeProposal(uint256)":"0d61b519","executionDelay()":"8b257989","getProposalDescription(uint256)":"229acb17","getProposalDetails(uint256)":"3b4d01a7","getProposalProposer(uint256)":"5f90af2a","getProposalState(uint256)":"9080936f","getProposalVotes(uint256)":"47c66140","getVoteByUser(uint256,address)":"6669f6c7","gracePeriod()":"a06db7dc","owner()":"8da5cb5b","proposalCount()":"da35c664","proposals(uint256)":"013cf08b","quorum()":"1703a018","renounceOwnership()":"715018a6","sETHToken()":"69755c32","setTargetWhitelist(address,bool)":"108bdc14","transferOwnership(address)":"f2fde38b","updateGovernanceParams(uint256,uint256,uint256,uint256)":"6a05c8bb","votingPeriod()":"02a251a3"},"id":0}