{"abi":[{"type":"constructor","inputs":[{"name":"_dETHToken","type":"address","internalType":"address payable"}],"stateMutability":"nonpayable"},{"type":"function","name":"CLOCK_MODE","inputs":[],"outputs":[{"name":"","type":"string","internalType":"string"}],"stateMutability":"view"},{"type":"function","name":"DOMAIN_SEPARATOR","inputs":[],"outputs":[{"name":"","type":"bytes32","internalType":"bytes32"}],"stateMutability":"view"},{"type":"function","name":"allowance","inputs":[{"name":"owner","type":"address","internalType":"address"},{"name":"spender","type":"address","internalType":"address"}],"outputs":[{"name":"","type":"uint256","internalType":"uint256"}],"stateMutability":"view"},{"type":"function","name":"approve","inputs":[{"name":"spender","type":"address","internalType":"address"},{"name":"value","type":"uint256","internalType":"uint256"}],"outputs":[{"name":"","type":"bool","internalType":"bool"}],"stateMutability":"nonpayable"},{"type":"function","name":"balanceOf","inputs":[{"name":"account","type":"address","internalType":"address"}],"outputs":[{"name":"","type":"uint256","internalType":"uint256"}],"stateMutability":"view"},{"type":"function","name":"checkpoints","inputs":[{"name":"account","type":"address","internalType":"address"},{"name":"pos","type":"uint32","internalType":"uint32"}],"outputs":[{"name":"","type":"tuple","internalType":"struct Checkpoints.Checkpoint208","components":[{"name":"_key","type":"uint48","internalType":"uint48"},{"name":"_value","type":"uint208","internalType":"uint208"}]}],"stateMutability":"view"},{"type":"function","name":"clock","inputs":[],"outputs":[{"name":"","type":"uint48","internalType":"uint48"}],"stateMutability":"view"},{"type":"function","name":"dETHToken","inputs":[],"outputs":[{"name":"","type":"address","internalType":"contract DepositETH"}],"stateMutability":"view"},{"type":"function","name":"decimals","inputs":[],"outputs":[{"name":"","type":"uint8","internalType":"uint8"}],"stateMutability":"view"},{"type":"function","name":"delegate","inputs":[{"name":"delegatee","type":"address","internalType":"address"}],"outputs":[],"stateMutability":"nonpayable"},{"type":"function","name":"delegateBySig","inputs":[{"name":"delegatee","type":"address","internalType":"address"},{"name":"nonce","type":"uint256","internalType":"uint256"},{"name":"expiry","type":"uint256","internalType":"uint256"},{"name":"v","type":"uint8","internalType":"uint8"},{"name":"r","type":"bytes32","internalType":"bytes32"},{"name":"s","type":"bytes32","internalType":"bytes32"}],"outputs":[],"stateMutability":"nonpayable"},{"type":"function","name":"delegates","inputs":[{"name":"account","type":"address","internalType":"address"}],"outputs":[{"name":"","type":"address","internalType":"address"}],"stateMutability":"view"},{"type":"function","name":"eip712Domain","inputs":[],"outputs":[{"name":"fields","type":"bytes1","internalType":"bytes1"},{"name":"name","type":"string","internalType":"string"},{"name":"version","type":"string","internalType":"string"},{"name":"chainId","type":"uint256","internalType":"uint256"},{"name":"verifyingContract","type":"address","internalType":"address"},{"name":"salt","type":"bytes32","internalType":"bytes32"},{"name":"extensions","type":"uint256[]","internalType":"uint256[]"}],"stateMutability":"view"},{"type":"function","name":"getAllStakers","inputs":[],"outputs":[{"name":"","type":"address[]","internalType":"address[]"}],"stateMutability":"view"},{"type":"function","name":"getCurrentVotes","inputs":[{"name":"account","type":"address","internalType":"address"}],"outputs":[{"name":"","type":"uint256","internalType":"uint256"}],"stateMutability":"view"},{"type":"function","name":"getPaginatedStakers","inputs":[{"name":"offset","type":"uint256","internalType":"uint256"},{"name":"limit","type":"uint256","internalType":"uint256"}],"outputs":[{"name":"_stakers","type":"address[]","internalType":"address[]"},{"name":"_amounts","type":"uint256[]","internalType":"uint256[]"},{"name":"_timestamps","type":"uint256[]","internalType":"uint256[]"},{"name":"_ranks","type":"uint256[]","internalType":"uint256[]"}],"stateMutability":"view"},{"type":"function","name":"getPastTotalSupply","inputs":[{"name":"timepoint","type":"uint256","internalType":"uint256"}],"outputs":[{"name":"","type":"uint256","internalType":"uint256"}],"stateMutability":"view"},{"type":"function","name":"getPastVotes","inputs":[{"name":"account","type":"address","internalType":"address"},{"name":"timepoint","type":"uint256","internalType":"uint256"}],"outputs":[{"name":"","type":"uint256","internalType":"uint256"}],"stateMutability":"view"},{"type":"function","name":"getStakeInfo","inputs":[{"name":"user","type":"address","internalType":"address"}],"outputs":[{"name":"amount","type":"uint256","internalType":"uint256"},{"name":"timestamp","type":"uint256","internalType":"uint256"},{"name":"rank","type":"uint256","internalType":"uint256"}],"stateMutability":"view"},{"type":"function","name":"getStakingStats","inputs":[],"outputs":[{"name":"_totalStaked","type":"uint256","internalType":"uint256"},{"name":"_totalStakers","type":"uint256","internalType":"uint256"},{"name":"_averageStake","type":"uint256","internalType":"uint256"}],"stateMutability":"view"},{"type":"function","name":"getTopStakers","inputs":[{"name":"count","type":"uint256","internalType":"uint256"}],"outputs":[{"name":"","type":"address[]","internalType":"address[]"},{"name":"","type":"uint256[]","internalType":"uint256[]"}],"stateMutability":"view"},{"type":"function","name":"getTotalStakers","inputs":[],"outputs":[{"name":"","type":"uint256","internalType":"uint256"}],"stateMutability":"view"},{"type":"function","name":"getVotes","inputs":[{"name":"account","type":"address","internalType":"address"}],"outputs":[{"name":"","type":"uint256","internalType":"uint256"}],"stateMutability":"view"},{"type":"function","name":"isStaker","inputs":[{"name":"","type":"address","internalType":"address"}],"outputs":[{"name":"","type":"bool","internalType":"bool"}],"stateMutability":"view"},{"type":"function","name":"name","inputs":[],"outputs":[{"name":"","type":"string","internalType":"string"}],"stateMutability":"view"},{"type":"function","name":"nonces","inputs":[{"name":"owner","type":"address","internalType":"address"}],"outputs":[{"name":"","type":"uint256","internalType":"uint256"}],"stateMutability":"view"},{"type":"function","name":"numCheckpoints","inputs":[{"name":"account","type":"address","internalType":"address"}],"outputs":[{"name":"","type":"uint32","internalType":"uint32"}],"stateMutability":"view"},{"type":"function","name":"owner","inputs":[],"outputs":[{"name":"","type":"address","internalType":"address"}],"stateMutability":"view"},{"type":"function","name":"permit","inputs":[{"name":"owner","type":"address","internalType":"address"},{"name":"spender","type":"address","internalType":"address"},{"name":"value","type":"uint256","internalType":"uint256"},{"name":"deadline","type":"uint256","internalType":"uint256"},{"name":"v","type":"uint8","internalType":"uint8"},{"name":"r","type":"bytes32","internalType":"bytes32"},{"name":"s","type":"bytes32","internalType":"bytes32"}],"outputs":[],"stateMutability":"nonpayable"},{"type":"function","name":"renounceOwnership","inputs":[],"outputs":[],"stateMutability":"nonpayable"},{"type":"function","name":"stake","inputs":[{"name":"amount","type":"uint256","internalType":"uint256"}],"outputs":[],"stateMutability":"nonpayable"},{"type":"function","name":"stakerAddresses","inputs":[{"name":"","type":"uint256","internalType":"uint256"}],"outputs":[{"name":"","type":"address","internalType":"address"}],"stateMutability":"view"},{"type":"function","name":"symbol","inputs":[],"outputs":[{"name":"","type":"string","internalType":"string"}],"stateMutability":"view"},{"type":"function","name":"totalStaked","inputs":[],"outputs":[{"name":"","type":"uint256","internalType":"uint256"}],"stateMutability":"view"},{"type":"function","name":"totalStakers","inputs":[],"outputs":[{"name":"","type":"uint256","internalType":"uint256"}],"stateMutability":"view"},{"type":"function","name":"totalSupply","inputs":[],"outputs":[{"name":"","type":"uint256","internalType":"uint256"}],"stateMutability":"view"},{"type":"function","name":"transfer","inputs":[{"name":"to","type":"address","internalType":"address"},{"name":"value","type":"uint256","internalType":"uint256"}],"outputs":[{"name":"","type":"bool","internalType":"bool"}],"stateMutability":"nonpayable"},{"type":"function","name":"transferFrom","inputs":[{"name":"from","type":"address","internalType":"address"},{"name":"to","type":"address","internalType":"address"},{"name":"value","type":"uint256","internalType":"uint256"}],"outputs":[{"name":"","type":"bool","internalType":"bool"}],"stateMutability":"nonpayable"},{"type":"function","name":"transferOwnership","inputs":[{"name":"newOwner","type":"address","internalType":"address"}],"outputs":[],"stateMutability":"nonpayable"},{"type":"function","name":"unstake","inputs":[{"name":"amount","type":"uint256","internalType":"uint256"}],"outputs":[],"stateMutability":"nonpayable"},{"type":"function","name":"updateLeaderboard","inputs":[],"outputs":[],"stateMutability":"nonpayable"},{"type":"function","name":"userStakes","inputs":[{"name":"","type":"address","internalType":"address"}],"outputs":[{"name":"amount","type":"uint256","internalType":"uint256"},{"name":"timestamp","type":"uint256","internalType":"uint256"},{"name":"rank","type":"uint256","internalType":"uint256"}],"stateMutability":"view"},{"type":"event","name":"Approval","inputs":[{"name":"owner","type":"address","indexed":true,"internalType":"address"},{"name":"spender","type":"address","indexed":true,"internalType":"address"},{"name":"value","type":"uint256","indexed":false,"internalType":"uint256"}],"anonymous":false},{"type":"event","name":"DelegateChanged","inputs":[{"name":"delegator","type":"address","indexed":true,"internalType":"address"},{"name":"fromDelegate","type":"address","indexed":true,"internalType":"address"},{"name":"toDelegate","type":"address","indexed":true,"internalType":"address"}],"anonymous":false},{"type":"event","name":"DelegateVotesChanged","inputs":[{"name":"delegate","type":"address","indexed":true,"internalType":"address"},{"name":"previousVotes","type":"uint256","indexed":false,"internalType":"uint256"},{"name":"newVotes","type":"uint256","indexed":false,"internalType":"uint256"}],"anonymous":false},{"type":"event","name":"EIP712DomainChanged","inputs":[],"anonymous":false},{"type":"event","name":"LeaderboardUpdated","inputs":[{"name":"timestamp","type":"uint256","indexed":false,"internalType":"uint256"}],"anonymous":false},{"type":"event","name":"OwnershipTransferred","inputs":[{"name":"previousOwner","type":"address","indexed":true,"internalType":"address"},{"name":"newOwner","type":"address","indexed":true,"internalType":"address"}],"anonymous":false},{"type":"event","name":"Staked","inputs":[{"name":"user","type":"address","indexed":true,"internalType":"address"},{"name":"amount","type":"uint256","indexed":false,"internalType":"uint256"}],"anonymous":false},{"type":"event","name":"Transfer","inputs":[{"name":"from","type":"address","indexed":true,"internalType":"address"},{"name":"to","type":"address","indexed":true,"internalType":"address"},{"name":"value","type":"uint256","indexed":false,"internalType":"uint256"}],"anonymous":false},{"type":"event","name":"Unstaked","inputs":[{"name":"user","type":"address","indexed":true,"internalType":"address"},{"name":"amount","type":"uint256","indexed":false,"internalType":"uint256"}],"anonymous":false},{"type":"error","name":"CheckpointUnorderedInsertion","inputs":[]},{"type":"error","name":"ECDSAInvalidSignature","inputs":[]},{"type":"error","name":"ECDSAInvalidSignatureLength","inputs":[{"name":"length","type":"uint256","internalType":"uint256"}]},{"type":"error","name":"ECDSAInvalidSignatureS","inputs":[{"name":"s","type":"bytes32","internalType":"bytes32"}]},{"type":"error","name":"ERC20ExceededSafeSupply","inputs":[{"name":"increasedSupply","type":"uint256","internalType":"uint256"},{"name":"cap","type":"uint256","internalType":"uint256"}]},{"type":"error","name":"ERC20InsufficientAllowance","inputs":[{"name":"spender","type":"address","internalType":"address"},{"name":"allowance","type":"uint256","internalType":"uint256"},{"name":"needed","type":"uint256","internalType":"uint256"}]},{"type":"error","name":"ERC20InsufficientBalance","inputs":[{"name":"sender","type":"address","internalType":"address"},{"name":"balance","type":"uint256","internalType":"uint256"},{"name":"needed","type":"uint256","internalType":"uint256"}]},{"type":"error","name":"ERC20InvalidApprover","inputs":[{"name":"approver","type":"address","internalType":"address"}]},{"type":"error","name":"ERC20InvalidReceiver","inputs":[{"name":"receiver","type":"address","internalType":"address"}]},{"type":"error","name":"ERC20InvalidSender","inputs":[{"name":"sender","type":"address","internalType":"address"}]},{"type":"error","name":"ERC20InvalidSpender","inputs":[{"name":"spender","type":"address","internalType":"address"}]},{"type":"error","name":"ERC2612ExpiredSignature","inputs":[{"name":"deadline","type":"uint256","internalType":"uint256"}]},{"type":"error","name":"ERC2612InvalidSigner","inputs":[{"name":"signer","type":"address","internalType":"address"},{"name":"owner","type":"address","internalType":"address"}]},{"type":"error","name":"ERC5805FutureLookup","inputs":[{"name":"timepoint","type":"uint256","internalType":"uint256"},{"name":"clock","type":"uint48","internalType":"uint48"}]},{"type":"error","name":"ERC6372InconsistentClock","inputs":[]},{"type":"error","name":"InvalidAccountNonce","inputs":[{"name":"account","type":"address","internalType":"address"},{"name":"currentNonce","type":"uint256","internalType":"uint256"}]},{"type":"error","name":"InvalidShortString","inputs":[]},{"type":"error","name":"OwnableInvalidOwner","inputs":[{"name":"owner","type":"address","internalType":"address"}]},{"type":"error","name":"OwnableUnauthorizedAccount","inputs":[{"name":"account","type":"address","internalType":"address"}]},{"type":"error","name":"ReentrancyGuardReentrantCall","inputs":[]},{"type":"error","name":"SafeCastOverflowedUintDowncast","inputs":[{"name":"bits","type":"uint8","internalType":"uint8"},{"name":"value","type":"uint256","internalType":"uint256"}]},{"type":"error","name":"StringTooLong","inputs":[{"name":"str","type":"string","internalType":"string"}]},{"type":"error","name":"VotesExpiredSignature","inputs":[{"name":"expiry","type":"uint256","internalType":"uint256"}]}],"bytecode":{"object":"0x610160346200053a57601f62003ae238819003918201601f19168301916001600160401b038311848410176200031b578084926020946040528339810103126200053a57516001600160a01b03811681036200053a576040519062000064826200053e565b601082526f29ba30b5b2b21022aa24102a37b5b2b760811b908160208401526040519162000092836200053e565b60108352602083015260405192620000aa846200053e565b60048452630e68aa8960e31b602085015260405192620000ca846200053e565b60018452603160f81b60208501528051906001600160401b0382116200031b5760035490600182811c921680156200052f575b6020831014620004085781601f849311620004bc575b50602090601f831160011462000433575f9262000427575b50508160011b915f199060031b1c1916176003555b83516001600160401b0381116200031b57600454600181811c911680156200041c575b60208210146200040857601f8111620003a4575b50602094601f82116001146200033b579481929394955f926200032f575b50508160011b915f199060031b1c1916176004555b620001b5816200055a565b610120908152620001c68462000712565b9161014092835260208151910120938460e0526020815191012093610100948086524660a0526040519060208201927f8b73c3c69bb8fe3d512ecc4cf759cc79239f7b179b0ffacaa9a75d522b39400f8452604083015260608201524660808201523060a082015260a0815260c081019181831060018060401b038411176200031b5782604052815190206080523060c052331562000305575050600b8054336001600160a01b0319808316821790935560405195916001600160a01b03167f8be0079c531659141344cd1fd0a4f28419497f9722a3daafe3b4186f6b6457e05f80a36001600c5560018060a01b031690600d541617600d556132229384620008c08539608051846129d7015260a05184612a92015260c051846129a1015260e05184612a2601525183612a4c01525182610f4701525181610f730152f35b631e4fbdf760e01b82525f60c490910152602490fd5b634e487b7160e01b5f52604160045260245ffd5b015190505f8062000195565b601f1982169560045f5260205f20915f5b8881106200038b5750836001959697981062000372575b505050811b01600455620001aa565b01515f1960f88460031b161c191690555f808062000363565b919260206001819286850151815501940192016200034c565b60045f527f8a35acfbc15ff81a39ae7d344fd709f28e8600b4aa8c65c6b64bfe7fe36bd19b601f830160051c81016020841062000400575b601f830160051c82018110620003f457505062000177565b5f8155600101620003dc565b5080620003dc565b634e487b7160e01b5f52602260045260245ffd5b90607f169062000163565b015190505f806200012b565b60035f9081527fc2575a0e9e593c00f959f8c92f12db2869c3395a3b0502d05e2516446f71f85b9350601f198516905b818110620004a357509084600195949392106200048a575b505050811b0160035562000140565b01515f1960f88460031b161c191690555f80806200047b565b9293602060018192878601518155019501930162000463565b60035f529091507fc2575a0e9e593c00f959f8c92f12db2869c3395a3b0502d05e2516446f71f85b601f840160051c8101916020851062000524575b90601f859493920160051c01905b81811062000515575062000113565b5f815584935060010162000506565b9091508190620004f8565b91607f1691620000fd565b5f80fd5b604081019081106001600160401b038211176200031b57604052565b80516020919082811015620005f6575090601f8251116200059757808251920151908083106200058957501790565b825f19910360031b1b161790565b90604051809263305a27a960e01b82528060048301528251908160248401525f935b828510620005dc575050604492505f838284010152601f80199101168101030190fd5b8481018201518686016044015293810193859350620005b9565b6001600160401b0381116200031b576005928354926001938481811c9116801562000707575b838210146200040857601f8111620006d3575b5081601f84116001146200066d57509282939183925f9462000661575b50501b915f199060031b1c191617905560ff90565b015192505f806200064c565b919083601f198116875f52845f20945f905b88838310620006b857505050106200069f575b505050811b01905560ff90565b01515f1960f88460031b161c191690555f808062000692565b8587015188559096019594850194879350908101906200067f565b855f5284601f845f209201871c820191601f8601881c015b828110620006fb5750506200062f565b5f8155018590620006eb565b90607f16906200061c565b8051602090818110156200079e5750601f8251116200073f57808251920151908083106200058957501790565b90604051809263305a27a960e01b82528060048301528251908160248401525f935b82851062000784575050604492505f838284010152601f80199101168101030190fd5b848101820151868601604401529381019385935062000761565b906001600160401b0382116200031b57600654926001938481811c91168015620008b4575b838210146200040857601f81116200087d575b5081601f84116001146200081557509282939183925f9462000809575b50501b915f199060031b1c19161760065560ff90565b015192505f80620007f3565b919083601f19811660065f52845f20945f905b8883831062000862575050501062000849575b505050811b0160065560ff90565b01515f1960f88460031b161c191690555f80806200083b565b85870151885590960195948501948793509081019062000828565b60065f5284601f845f20920160051c820191601f860160051c015b828110620008a8575050620007d6565b5f815501859062000898565b90607f1690620007c356fe60806040526004361015610011575f80fd5b5f3560e01c806306fdde03146102aa578063095ea7b3146102a557806318160ddd146102a057806323b872dd1461029b5780632e17de7814610296578063313ce5671461029157806331ed0db41461023c5780633644e5151461028c57806338ba40e1146102875780633a46b1a814610282578063459598a21461027d5780634bf5d7e91461027857806353734b0214610273578063587cde1e1461026e5780635c19a95c146102695780636e4f88c8146102645780636f1e85331461025f5780636fcfff451461025a57806370a0823114610255578063715018a6146102505780637ecebe001461024b578063817b1cd21461024657806384b0196e14610241578063869890381461023c5780638da5cb5b146102375780638da7ad23146102325780638e539e8c1461022d57806391ddadf41461022857806394c784e81461022357806395d89b411461021e5780639ab24eb01461020f578063a694fc3a14610219578063a9059cbb14610214578063b4b5ea571461020f578063c1dd60841461020a578063c345315314610205578063c3cda52014610200578063c80ca39a146101fb578063d505accf146101f6578063dd62ed3e146101f1578063f1127ed8146101ec5763f2fde38b146101e7575f80fd5b6118d2565b611820565b6117c9565b611696565b61164f565b611586565b6114da565b611488565b611232565b611462565b611279565b61118c565b611164565b611139565b611070565b611017565b610fef565b6106b3565b610f2f565b610f12565b610eda565b610e7d565b610e45565b610ddf565b610da2565b610d23565b610d01565b610cc8565b610b12565b610a81565b610a3a565b610904565b6107a9565b6106d0565b610698565b61050e565b610463565b610446565b610415565b610301565b91908251928382525f5b8481106102d9575050825f602080949584010152601f8019910116010190565b6020818301810151848301820152016102b9565b9060206102fe9281815201906102af565b90565b346103e5575f806003193601126103e257604051908060035461032381612327565b808552916001918083169081156103b8575060011461035d575b6103598561034d81870382611a09565b604051918291826102ed565b0390f35b9250600383527fc2575a0e9e593c00f959f8c92f12db2869c3395a3b0502d05e2516446f71f85b5b8284106103a057505050810160200161034d8261035961033d565b80546020858701810191909152909301928101610385565b8695506103599693506020925061034d94915060ff191682840152151560051b820101929361033d565b80fd5b5f80fd5b600435906001600160a01b03821682036103e557565b602435906001600160a01b03821682036103e557565b346103e55760403660031901126103e55761043b6104316103e9565b6024359033612603565b602060405160018152f35b346103e5575f3660031901126103e5576020600254604051908152f35b346103e55760603660031901126103e55761047c6103e9565b6104846103ff565b6001600160a01b0382165f9081526001602090815260408083203384529091529020604435919054925f1984106104cc575b6104c0935061235f565b60405160018152602090f35b8284106104e8576104e3836104c0950333836126b1565b6104b6565b604051637dc7a0d960e11b81523360048201526024810185905260448101849052606490fd5b346103e55760203660031901126103e55760043561052a612836565b610535811515611b74565b335f908152602081905260409020610551908290541015611bc0565b335f90815260126020526040902061056d908290541015611c0c565b6105778133612515565b335f908152601260205260409020610590828254611c66565b9055335f908152601260205260409020541561068a575b600d546105c4906001600160a01b03165b6001600160a01b031690565b60405163a9059cbb60e01b81523360048201526024810183905290602090829060449082905f905af1801561068557610604915f91610657575b50611aa9565b61061861061382600e54611c66565b600e55565b60405190815233907f0f5bb82176feb1b5e747e28471aa92156a04d9f3ab9f45f28e2d704232b93f759080602081015b0390a26106556001600c55565b005b610678915060203d811161067e575b6106708183611a09565b810190611a91565b5f6105fe565b503d610666565b611a3a565b61069333611cea565b6105a7565b346103e5575f3660031901126103e557602060405160128152f35b346103e5575f3660031901126103e5576020600f54604051908152f35b346103e5575f3660031901126103e55760206106ea61299e565b604051908152f35b9081518082526020808093019301915f5b828110610711575050505090565b83516001600160a01b031685529381019392810192600101610703565b9081518082526020808093019301915f5b82811061074d575050505090565b83518552938101939281019260010161073f565b9261078d6102fe959361077f61079b946080885260808801906106f2565b90868203602088015261072e565b90848203604086015261072e565b91606081840391015261072e565b346103e55760403660031901126103e557600435602435601054825f918181115f146108fc576107d99250611c66565b905b818111156108f45750905b6107ef82611e1f565b906107f983611e1f565b9261080381611e1f565b9061080d81611e1f565b925f5b82811061082b57505050906103599160405194859485610761565b8060026108dd61085e6108496108446108ef9688611b67565b6109fe565b905460039190911b1c6001600160a01b031690565b61087b8161086c868d611e78565b6001600160a01b039091169052565b6001600160a01b0381165f9081526012602052604090205461089d858d611e78565b526001600160a01b0381165f908152601260205260409020600101546108c3858a611e78565b526001600160a01b03165f90815260126020526040902090565b01546108e98288611e78565b52611b4b565b610810565b9050906107e6565b5050906107db565b346103e55760403660031901126103e5576001600160a01b036109256103e9565b165f9081526009602052604081209061093f602435612080565b91805482938160058111610991575b509060209461095d9284613147565b806109775750505b6040516001600160d01b039091168152f35b91610983849293611c58565b92815220015460301c610965565b9461099b86612cf2565b86039586116109e55760209561095d9385875265ffffffffffff80838a8a20015416908516105f146109d35750915b9192509461094e565b9291506109df90611b59565b906109ca565b611b37565b634e487b7160e01b5f52603260045260245ffd5b601054811015610a205760105f525f805160206131cd83398151915201905f90565b6109ea565b8054821015610a20575f5260205f2001905f90565b346103e55760203660031901126103e5576004356010548110156103e55760105f525f805160206131cd83398151915201546040516001600160a01b039091168152602090f35b346103e5575f3660031901126103e557610a9a43612cc0565b65ffffffffffff80610aab43612cc0565b16911603610b0057610359604051610ac2816119b5565b601d81527f6d6f64653d626c6f636b6e756d6265722666726f6d3d64656661756c7400000060208201526040519182916020835260208301906102af565b6040516301bfc1c560e61b8152600490fd5b346103e5575f806003193601126103e257610b2b612054565b601054610b3781611e1f565b610b4082611e1f565b91835b818110610c96575050825b8151841015610c1557610b6084611b59565b8251811015610c0457610b8d90610b778686611e78565b51610b828287611e78565b5111610b9257611b4b565b610b60565b610b9c8686611e78565b51610ba78287611e78565b51610bb28888611e78565b52610bbd8287611e78565b52610bff610bdb610bce8887611e78565b516001600160a01b031690565b610bf5610beb610bce8589611e78565b61086c8a89611e78565b61086c8387611e78565b611b4b565b5092610c0f90611b4b565b92610b4e565b90815b8151811015610c655780610c2e610c6092611b59565b6002610c59610c40610bce8588611e78565b6001600160a01b03165f90815260126020526040902090565b0155611b4b565b610c18565b60405142815283907fc5f0fcb9532743fcf8bf92b049d6eb21320fab68a6a987da219d6d95b5b262c690602090a180f35b80610ca9610bf5610849610cc3946109fe565b610cb8610c40610849836109fe565b546108e98287611e78565b610b43565b346103e55760203660031901126103e55760206001600160a01b0380610cec6103e9565b165f526008825260405f205416604051908152f35b346103e55760203660031901126103e557610655610d1d6103e9565b336120c1565b346103e5575f3660031901126103e5576040518060105480825282602080930160105f525f805160206131cd833981519152925f5b85828210610d8357505050610d6f92500383611a09565b6103596040519282849384528301906106f2565b85546001600160a01b0316845260019586019588955093019201610d58565b346103e55760203660031901126103e5576001600160a01b03610dc36103e9565b165f526011602052602060ff60405f2054166040519015158152f35b346103e55760203660031901126103e5576001600160a01b03610e006103e9565b165f52600960205260405f205463ffffffff90818111610e265760209160405191168152f35b604490604051906306dfcc6560e41b8252602060048301526024820152fd5b346103e55760203660031901126103e55760206106ea610e636103e9565b6001600160a01b03165f9081526020819052604090205490565b346103e5575f806003193601126103e257610e96612054565b600b80546001600160a01b0319811690915581906001600160a01b03167f8be0079c531659141344cd1fd0a4f28419497f9722a3daafe3b4186f6b6457e08280a380f35b346103e55760203660031901126103e5576001600160a01b03610efb6103e9565b165f526007602052602060405f2054604051908152f35b346103e5575f3660031901126103e5576020600e54604051908152f35b346103e5575f3660031901126103e557610fc1610f6b7f0000000000000000000000000000000000000000000000000000000000000000612ade565b610359610f977f0000000000000000000000000000000000000000000000000000000000000000612bd5565b610fcf610fa2611e51565b91604051958695600f60f81b875260e0602088015260e08701906102af565b9085820360408701526102af565b904660608501523060808501525f60a085015283820360c085015261072e565b346103e5575f3660031901126103e557600b546040516001600160a01b039091168152602090f35b346103e55760203660031901126103e5576001600160a01b036110386103e9565b165f52601260205260405f20805461035960026001840154930154604051938493846040919493926060820195825260208201520152565b346103e55760203660031901126103e55761108c600435612080565b600a54905f8291600584116110e0575b6110a693506130e1565b5f816110b95750506040515f8152602090f35b600a6110c6602093611c58565b91525f805160206131ad833981519152015460301c610965565b91926110eb81612cf2565b81039081116109e5576110a693600a835265ffffffffffff80835f805160206131ad833981519152015416908516105f1461112757509161109c565b92915061113390611b59565b9061109c565b346103e5575f3660031901126103e557602061115443612cc0565b65ffffffffffff60405191168152f35b346103e5575f3660031901126103e557600d546040516001600160a01b039091168152602090f35b346103e5575f806003193601126103e25760405190806004546111ae81612327565b808552916001918083169081156103b857506001146111d7576103598561034d81870382611a09565b9250600483527f8a35acfbc15ff81a39ae7d344fd709f28e8600b4aa8c65c6b64bfe7fe36bd19b5b82841061121a57505050810160200161034d8261035961033d565b805460208587018101919091529093019281016111ff565b346103e55760203660031901126103e5576001600160a01b036112536103e9565b165f526009602052602060018060d01b0361127060405f20612e64565b16604051908152f35b346103e5576020806003193601126103e55760043590611297612836565b6112a282151561195e565b600d546112b7906001600160a01b03166105b8565b6040516370a0823160e01b81523360048201528281602481855afa908115610685576112ee9185915f91611435575b501015611a45565b6040516323b872dd60e01b815233600482015230602482015260448101849052908290829060649082905f905af190811561068557611335925f92611418575b5050611aa9565b335f90815260116020526040902061135790611353905b5460ff1690565b1590565b6113d8575b335f908152601260205260409020611375828254611b67565b9055335f908152601260205260409020429060010155611395813361246a565b6113a461061382600e54611b67565b60405190815233907f9e71bc8eea02a63969f509818f2dafb9254532904319f9dbda79b67bd34a5f3d908060208101610648565b6113e133611ae7565b335f90815260116020526040902061140090805460ff19166001179055565b61141361140e600f54611b4b565b600f55565b61135c565b61142e9250803d1061067e576106708183611a09565b5f8061132e565b6114559150853d871161145b575b61144d8183611a09565b810190611a2b565b5f6112e6565b503d611443565b346103e55760403660031901126103e55761043b61147e6103e9565b602435903361235f565b346103e5575f3660031901126103e557600e54600f54905f82156114d157506103596114b48383612036565b604051938493846040919493926060820195825260208201520152565b610359906114b4565b346103e55760203660031901126103e5576001600160a01b036114fb6103e9565b165f52601260205260405f206040516060810181811067ffffffffffffffff821117611561576040526103596040835492838152600260018601549586602084015201549182910152604051938493846040919493926060820195825260208201520152565b6119a1565b6064359060ff821682036103e557565b6084359060ff821682036103e557565b346103e55760c03660031901126103e55761159f6103e9565b604435906024356115ae611566565b8342116116365761162a61065594611631926040519060208201927fe48329057bfd03d55e49b547132e39cffd9c1820ad7b9d4c5307691425d15adf845260018060a01b0388166040840152866060840152608083015260808252611612826119d1565b61162560a4359360843593519020612ab8565b612859565b91826127e0565b6120c1565b604051632341d78760e11b815260048101859052602490fd5b346103e55760203660031901126103e557611688610359611671600435611e8c565b6040929192519384936040855260408501906106f2565b90838203602085015261072e565b346103e55760e03660031901126103e5576116af6103e9565b6116b76103ff565b604435906064356116c6611576565b8142116117b0576001600160a01b038581165f8181526007602090815260409182902080546001810190915582517f6e71edae12b1b97f4d1f60370fef10105fa2faae0126114a169c64845d6126c99281019283529283019390935292861660608201526080810187905260a081019190915260c08082019490945292835261176992909161175660e083611a09565b61162560c4359360a43593519020612ab8565b6001600160a01b0384811690821603611786575061065592612603565b6040516325c0072360e11b81526001600160a01b0391821660048201529084166024820152604490fd5b60405163313c898160e11b815260048101839052602490fd5b346103e55760403660031901126103e55760206118176117e76103e9565b6117ef6103ff565b6001600160a01b039182165f9081526001855260408082209290931681526020919091522090565b54604051908152f35b346103e55760403660031901126103e5576118396103e9565b6024359063ffffffff821682036103e557610359916118889161185a6127c8565b506118636127c8565b506001600160a01b03165f9081526009602052604090206118826127c8565b50610a25565b5060405190611896826119b5565b5465ffffffffffff811680835260309190911c60209283019081526040805192835290516001600160d01b031692820192909252918291820190565b346103e55760203660031901126103e5576118eb6103e9565b6118f3612054565b6001600160a01b0390811690811561194657600b54826bffffffffffffffffffffffff60a01b821617600b55167f8be0079c531659141344cd1fd0a4f28419497f9722a3daafe3b4186f6b6457e05f80a3005b604051631e4fbdf760e01b81525f6004820152602490fd5b1561196557565b60405162461bcd60e51b815260206004820152601460248201527309aeae6e840e6e8c2d6ca40e6dedaca40c88aa8960631b6044820152606490fd5b634e487b7160e01b5f52604160045260245ffd5b6040810190811067ffffffffffffffff82111761156157604052565b60a0810190811067ffffffffffffffff82111761156157604052565b60c0810190811067ffffffffffffffff82111761156157604052565b90601f8019910116810190811067ffffffffffffffff82111761156157604052565b908160209103126103e5575190565b6040513d5f823e3d90fd5b15611a4c57565b60405162461bcd60e51b815260206004820152601960248201527f496e73756666696369656e7420644554482062616c616e6365000000000000006044820152606490fd5b908160209103126103e5575180151581036103e55790565b15611ab057565b60405162461bcd60e51b815260206004820152600f60248201526e151c985b9cd9995c8819985a5b1959608a1b6044820152606490fd5b601054600160401b811015611561576001810180601055811015610a205760105f525f805160206131cd8339815191520180546001600160a01b0319166001600160a01b03909216919091179055565b634e487b7160e01b5f52601160045260245ffd5b5f1981146109e55760010190565b90600182018092116109e557565b919082018092116109e557565b15611b7b57565b60405162461bcd60e51b815260206004820152601d60248201527f416d6f756e74206d7573742062652067726561746572207468616e20300000006044820152606490fd5b15611bc757565b60405162461bcd60e51b815260206004820152601960248201527f496e73756666696369656e7420734554482062616c616e6365000000000000006044820152606490fd5b15611c1357565b60405162461bcd60e51b815260206004820152601a60248201527f496e73756666696369656e74207374616b656420616d6f756e740000000000006044820152606490fd5b5f198101919082116109e557565b919082039182116109e557565b6010548015611cca575f1981019080821015610a20577f1b6847dc741a1b0cd08d278845f9d819d87b734759afb55fe2de5cb82a9ae6719060105f52016bffffffffffffffffffffffff60a01b8154169055601055565b634e487b7160e01b5f52603160045260245ffd5b80156109e5575f190190565b6001600160a01b0381165f908152601160205260409020611d0a9061134c565b611d115750565b601054905f9081805b848110611dc2575b50611d2c57505050565b82611d6792611d3d611d7195611c58565b8110611d81575b5050611d4e611c73565b6001600160a01b03165f90815260116020526040902090565b805460ff19169055565b611d7f61140e600f54611cde565b565b611d9c611d96610849610844611dbb95611c58565b916109fe565b90919082549060031b9160018060a01b03809116831b921b1916179055565b5f80611d44565b611dce610849826109fe565b6001600160a01b03848116911614611dee57611de990611b4b565b611d1a565b9250600190505f611d22565b60405190611d7f826119b5565b67ffffffffffffffff81116115615760051b60200190565b90611e2982611e07565b611e366040519182611a09565b8281528092611e47601f1991611e07565b0190602036910137565b6040516020810181811067ffffffffffffffff821117611561576040525f8152905f368137565b8051821015610a205760209160051b010190565b600f54908181111561202e5750905b611ea482611e1f565b611ead83611e1f565b8315612028579060109392935492611ec484611e1f565b92611ece85611e1f565b945f5b818110611fea5750505f955b8451871015611f9a57611eef87611b59565b8551811015611f8157611f1c90611f068989611e78565b51611f11828a611e78565b5111611f2157611b4b565b611eef565b611f2b8989611e78565b51611f36828a611e78565b51611f418b8b611e78565b52611f4c828a611e78565b52610bff611f5d610bce8b8a611e78565b611f77611f6d610bce858c611e78565b61086c8d8c611e78565b61086c838a611e78565b509195611f9090939193611b4b565b9591929092611edd565b949192939095505f5b838110611fb257505050509190565b80611fd0611fc6610bce611fe59486611e78565b61086c8389611e78565b611fda8185611e78565b516108e9828a611e78565b611fa3565b80612003611f7761084961201d949b979b9896986109fe565b612012610c40610849836109fe565b546108e9828a611e78565b969296939193611ed1565b92509190565b905090611e9b565b8115612040570490565b634e487b7160e01b5f52601260045260245ffd5b600b546001600160a01b0316330361206857565b60405163118cdaa760e01b8152336004820152602490fd5b65ffffffffffff61209043612cc0565b16808210156120a357506102fe90612cc0565b6044925060405191637669fc0f60e11b835260048301526024820152fd5b6001600160a01b038181165f81815260086020526040812080548685166001600160a01b031982168117909255611d7f9694169461213c9390928691907f3134e8a2e6d97e929a7e54011ea5485d7d196dd5f0ba4d4ef95803e8e3fc257f9080a46001600160a01b03165f9081526020819052604090205490565b915b6001600160a01b03808316939291908116908185141580612285575b612166575b5050505050565b816121ea575b50508261217b575b808061215f565b6001600160a01b03165f9081526009602052604090207fdec2bacdd2f05b59de34da9b523dff8be42e5e38e818c82fdb0bae774387a724916121c7916121c19091612c8d565b9061228e565b604080516001600160d01b039384168152919092166020820152a25f8080612174565b6001600160a01b03165f90815260096020526040902061220984612c8d565b61221243612cc0565b6001600160d01b0391828061222686612e64565b1691169003928284116109e5577fdec2bacdd2f05b59de34da9b523dff8be42e5e38e818c82fdb0bae774387a7249361227b9261226292613027565b6040805192851683529316602082015291829190820190565b0390a25f8061216c565b5083151561215a565b9061229843612cc0565b6001600160d01b039182806122ac86612e64565b169116019182116109e5576122c092613027565b9091565b6122cd43612cc0565b906001600160d01b039081806122e1612e1d565b169116019081116109e5576122c091612f41565b6122fe43612cc0565b906001600160d01b03908180612312612e1d565b16911690039081116109e5576122c091612f41565b90600182811c92168015612355575b602083101461234157565b634e487b7160e01b5f52602260045260245ffd5b91607f1691612336565b6001600160a01b0380821694939291908515612452578216801561243a576001600160a01b0382165f908152602081905260409020549584871061240b5784611d7f9697036123bd8460018060a01b03165f525f60205260405f2090565b556001600160a01b0384165f908152602081815260409182902080548801905590518681527fddf252ad1be2c89b69c2b068fc378daa952ba7f163c4a11628f55a4df523b3ef9190a3612761565b60405163391434e360e21b81526001600160a01b03841660048201526024810188905260448101869052606490fd5b60405163ec442f0560e01b81525f6004820152602490fd5b604051634b637e8f60e11b81525f6004820152602490fd5b91906001600160a01b038316801561243a576002548281018091116109e5576002556001600160a01b0384165f90815260208181526040808320805486019055518481527fddf252ad1be2c89b69c2b068fc378daa952ba7f163c4a11628f55a4df523b3ef9190a3600254926001600160d01b0384116124ef57611d7f9293506126e9565b604051630e58ae9360e11b8152600481018590526001600160d01b036024820152604490fd5b91906001600160a01b038084168015612452576001600160a01b0385165f90815260208190526040902054948386106125d257906020929161256d85611d7f9798039160018060a01b03165f525f60205260405f2090565b558360025403600255604051848152817fddf252ad1be2c89b69c2b068fc378daa952ba7f163c4a11628f55a4df523b3ef5f958693a36125b46125af85612c8d565b6122f5565b5050825260086020526040818184205416928080522054169061213e565b60405163391434e360e21b81526001600160a01b039190911660048201526024810186905260448101849052606490fd5b6001600160a01b03808216929190831561269957821693841561268157806126777f8c5be1e5ebec7d5bd14f71427d1e84f3dd0314c0f7b2291e5b200ac8c7c3b9259461266260209560018060a01b03165f52600160205260405f2090565b9060018060a01b03165f5260205260405f2090565b55604051908152a3565b604051634a1406b160e11b81525f6004820152602490fd5b60405163e602df0560e01b81525f6004820152602490fd5b906001600160a01b038083161561269957811615612681576126626126e69260018060a01b03165f52600160205260405f2090565b55565b90611d7f916126ff6126fa83612c8d565b6122c4565b50506001600160a01b0390811690811561274e575b60086020527f5eff886ea0ce6ca488a3d6e336d6c0f75f46d19b42c06ce5ee98e42c96d256c7545f9283526040909220548116911661213e565b61275a6125af84612c8d565b5050612714565b611d7f92916001600160a01b039182169190819083156127b5575b169182156127a2575b5f5260086020528060405f205416915f5260405f2054169061213e565b6127ae6125af85612c8d565b5050612785565b6127c16126fa86612c8d565b505061277c565b604051906127d5826119b5565b5f6020838281520152565b6001600160a01b0381165f90815260076020526040902080546001810190915580920361280b575050565b6040516301d4b62360e61b81526001600160a01b039190911660048201526024810191909152604490fd5b6002600c5414612847576002600c55565b604051633ee5aeb560e01b8152600490fd5b916102fe939161286893612871565b90929192612911565b91907f7fffffffffffffffffffffffffffffff5d576e7357a4501ddfe92f46681b20a084116128e857926020929160ff6080956040519485521684840152604083015260608201525f92839182805260015afa156106855780516001600160a01b038116156128df57918190565b50809160019190565b5050505f9160039190565b600411156128fd57565b634e487b7160e01b5f52602160045260245ffd5b61291a816128f3565b80612923575050565b61292c816128f3565b600181036129465760405163f645eedf60e01b8152600490fd5b61294f816128f3565b600281036129705760405163fce698f760e01b815260048101839052602490fd5b8061297c6003926128f3565b146129845750565b6040516335e2f38360e21b81526004810191909152602490fd5b307f00000000000000000000000000000000000000000000000000000000000000006001600160a01b03161480612a8f575b156129f9577f000000000000000000000000000000000000000000000000000000000000000090565b60405160208101907f8b73c3c69bb8fe3d512ecc4cf759cc79239f7b179b0ffacaa9a75d522b39400f82527f000000000000000000000000000000000000000000000000000000000000000060408201527f000000000000000000000000000000000000000000000000000000000000000060608201524660808201523060a082015260a08152612a89816119ed565b51902090565b507f000000000000000000000000000000000000000000000000000000000000000046146129d0565b604290612ac361299e565b906040519161190160f01b8352600283015260228201522090565b60ff8114612b1c5760ff811690601f8211612b0a5760405191612b00836119b5565b8252602082015290565b604051632cd44ac360e21b8152600490fd5b50604051600554815f612b2e83612327565b80835292600190818116908115612bb35750600114612b55575b506102fe92500382611a09565b60055f90815291507f036b6384b5eca791c62761152d0c79bb0604c104a5fb6f4eb0703f3154bb3db05b848310612b9857506102fe93505081016020015f612b48565b81935090816020925483858901015201910190918492612b7f565b9050602092506102fe94915060ff191682840152151560051b8201015f612b48565b60ff8114612bf75760ff811690601f8211612b0a5760405191612b00836119b5565b50604051600654815f612c0983612327565b80835292600190818116908115612bb35750600114612c2f57506102fe92500382611a09565b60065f90815291507ff652222313e28459528d920b65115c16c04f3efc82aaedc97be59f3f377c0d3f5b848310612c7257506102fe93505081016020015f612b48565b81935090816020925483858901015201910190918492612c59565b6001600160d01b0390818111612ca1571690565b604490604051906306dfcc6560e41b825260d060048301526024820152fd5b65ffffffffffff90818111612cd3571690565b604490604051906306dfcc6560e41b8252603060048301526024820152fd5b60018111156102fe57600181600160801b811015612e0b575b612db3612da9612d9f612d95612d8b612d81612dbf97600488600160401b612dba9a1015612dfe575b640100000000811015612df1575b62010000811015612de4575b610100811015612dd8575b6010811015612dcc575b1015612dc4575b60030260011c612d7a818b612036565b0160011c90565b612d7a818a612036565b612d7a8189612036565b612d7a8188612036565b612d7a8187612036565b612d7a8186612036565b8093612036565b821190565b900390565b60011b612d6a565b811c9160021b91612d63565b60081c91811b91612d59565b60101c9160081b91612d4e565b60201c9160101b91612d42565b60401c9160201b91612d34565b50600160401b9050608082901c612d0b565b600a545f9080612e2d5750505f90565b805f198101116109e557600a7fc65a7bb8d6351c1cf70c95a316cc6a92839c986682d98bc35f958f4883f9d2a79252015460301c90565b80545f9181612e74575050505f90565b5f199282848101116109e55760209181522001015460301c90565b600a5490600160401b821015611561576001820180600a55821015610a2057600a5f52805160209091015160301b65ffffffffffff191665ffffffffffff91909116175f805160206131ad83398151915290910155565b8054600160401b81101561156157612f0391600182018155610a25565b612f2e57815160209092015160301b65ffffffffffff191665ffffffffffff92909216919091179055565b634e487b7160e01b5f525f60045260245ffd5b600a549192918015612ffe57612f59612f6f91611c58565b600a5f525f805160206131ad8339815191520190565b9081549165ffffffffffff90818416918316808311612fec57869203612fb457612fad92509065ffffffffffff82549181199060301b169116179055565b60301c9190565b5050612fe790612fd3612fc5611dfa565b65ffffffffffff9092168252565b6001600160d01b0385166020820152612e8f565b612fad565b604051632520601d60e01b8152600490fd5b506130229061300e612fc5611dfa565b6001600160d01b0384166020820152612e8f565b5f9190565b805492939280156130bc5761303e61304991611c58565b825f5260205f200190565b9182549265ffffffffffff91828516928116808411612fec578793036130885750612fad92509065ffffffffffff82549181199060301b169116179055565b915050612fe7916130a861309a611dfa565b65ffffffffffff9093168352565b6001600160d01b0386166020830152612ee6565b5090613022916130cd61309a611dfa565b6001600160d01b0385166020830152612ee6565b905b8281106130ef57505090565b90918082169080831860011c82018092116109e557600a5f5265ffffffffffff80835f805160206131ad833981519152015416908516105f146131355750915b906130e3565b92915061314190611b59565b9061312f565b90915b8381106131575750505090565b9091928082169080831860011c82018092116109e5578160205f8681528265ffffffffffff92839220015416908716105f14613198575050925b919061314a565b909492506131a69150611b59565b9061319156fec65a7bb8d6351c1cf70c95a316cc6a92839c986682d98bc35f958f4883f9d2a81b6847dc741a1b0cd08d278845f9d819d87b734759afb55fe2de5cb82a9ae672a2646970667358221220bbda7802d385a995c742d2ade15b566c40b947027799408aefc5809d67b93d2564736f6c63430008140033","linkReferences":{}},"methodIdentifiers":{"CLOCK_MODE()":"4bf5d7e9","DOMAIN_SEPARATOR()":"3644e515","allowance(address,address)":"dd62ed3e","approve(address,uint256)":"095ea7b3","balanceOf(address)":"70a08231","checkpoints(address,uint32)":"f1127ed8","clock()":"91ddadf4","dETHToken()":"94c784e8","decimals()":"313ce567","delegate(address)":"5c19a95c","delegateBySig(address,uint256,uint256,uint8,bytes32,bytes32)":"c3cda520","delegates(address)":"587cde1e","eip712Domain()":"84b0196e","getAllStakers()":"6e4f88c8","getCurrentVotes(address)":"b4b5ea57","getPaginatedStakers(uint256,uint256)":"38ba40e1","getPastTotalSupply(uint256)":"8e539e8c","getPastVotes(address,uint256)":"3a46b1a8","getStakeInfo(address)":"c3453153","getStakingStats()":"c1dd6084","getTopStakers(uint256)":"c80ca39a","getTotalStakers()":"31ed0db4","getVotes(address)":"9ab24eb0","isStaker(address)":"6f1e8533","name()":"06fdde03","nonces(address)":"7ecebe00","numCheckpoints(address)":"6fcfff45","owner()":"8da5cb5b","permit(address,address,uint256,uint256,uint8,bytes32,bytes32)":"d505accf","renounceOwnership()":"715018a6","stake(uint256)":"a694fc3a","stakerAddresses(uint256)":"459598a2","symbol()":"95d89b41","totalStaked()":"817b1cd2","totalStakers()":"86989038","totalSupply()":"18160ddd","transfer(address,uint256)":"a9059cbb","transferFrom(address,address,uint256)":"23b872dd","transferOwnership(address)":"f2fde38b","unstake(uint256)":"2e17de78","updateLeaderboard()":"53734b02","userStakes(address)":"8da7ad23"},"id":3}