{"abi":[{"type":"constructor","inputs":[{"name":"_dETHToken","type":"address","internalType":"address payable"}],"stateMutability":"nonpayable"},{"type":"function","name":"CLOCK_MODE","inputs":[],"outputs":[{"name":"","type":"string","internalType":"string"}],"stateMutability":"view"},{"type":"function","name":"DOMAIN_SEPARATOR","inputs":[],"outputs":[{"name":"","type":"bytes32","internalType":"bytes32"}],"stateMutability":"view"},{"type":"function","name":"allowance","inputs":[{"name":"owner","type":"address","internalType":"address"},{"name":"spender","type":"address","internalType":"address"}],"outputs":[{"name":"","type":"uint256","internalType":"uint256"}],"stateMutability":"view"},{"type":"function","name":"approve","inputs":[{"name":"spender","type":"address","internalType":"address"},{"name":"value","type":"uint256","internalType":"uint256"}],"outputs":[{"name":"","type":"bool","internalType":"bool"}],"stateMutability":"nonpayable"},{"type":"function","name":"balanceOf","inputs":[{"name":"account","type":"address","internalType":"address"}],"outputs":[{"name":"","type":"uint256","internalType":"uint256"}],"stateMutability":"view"},{"type":"function","name":"checkpoints","inputs":[{"name":"account","type":"address","internalType":"address"},{"name":"pos","type":"uint32","internalType":"uint32"}],"outputs":[{"name":"","type":"tuple","internalType":"struct Checkpoints.Checkpoint208","components":[{"name":"_key","type":"uint48","internalType":"uint48"},{"name":"_value","type":"uint208","internalType":"uint208"}]}],"stateMutability":"view"},{"type":"function","name":"clock","inputs":[],"outputs":[{"name":"","type":"uint48","internalType":"uint48"}],"stateMutability":"view"},{"type":"function","name":"dETHToken","inputs":[],"outputs":[{"name":"","type":"address","internalType":"contract DepositETH"}],"stateMutability":"view"},{"type":"function","name":"decimals","inputs":[],"outputs":[{"name":"","type":"uint8","internalType":"uint8"}],"stateMutability":"view"},{"type":"function","name":"delegate","inputs":[{"name":"delegatee","type":"address","internalType":"address"}],"outputs":[],"stateMutability":"nonpayable"},{"type":"function","name":"delegateBySig","inputs":[{"name":"delegatee","type":"address","internalType":"address"},{"name":"nonce","type":"uint256","internalType":"uint256"},{"name":"expiry","type":"uint256","internalType":"uint256"},{"name":"v","type":"uint8","internalType":"uint8"},{"name":"r","type":"bytes32","internalType":"bytes32"},{"name":"s","type":"bytes32","internalType":"bytes32"}],"outputs":[],"stateMutability":"nonpayable"},{"type":"function","name":"delegates","inputs":[{"name":"account","type":"address","internalType":"address"}],"outputs":[{"name":"","type":"address","internalType":"address"}],"stateMutability":"view"},{"type":"function","name":"eip712Domain","inputs":[],"outputs":[{"name":"fields","type":"bytes1","internalType":"bytes1"},{"name":"name","type":"string","internalType":"string"},{"name":"version","type":"string","internalType":"string"},{"name":"chainId","type":"uint256","internalType":"uint256"},{"name":"verifyingContract","type":"address","internalType":"address"},{"name":"salt","type":"bytes32","internalType":"bytes32"},{"name":"extensions","type":"uint256[]","internalType":"uint256[]"}],"stateMutability":"view"},{"type":"function","name":"getAllStakers","inputs":[],"outputs":[{"name":"","type":"address[]","internalType":"address[]"}],"stateMutability":"view"},{"type":"function","name":"getCurrentVotes","inputs":[{"name":"account","type":"address","internalType":"address"}],"outputs":[{"name":"","type":"uint256","internalType":"uint256"}],"stateMutability":"view"},{"type":"function","name":"getPaginatedStakers","inputs":[{"name":"offset","type":"uint256","internalType":"uint256"},{"name":"limit","type":"uint256","internalType":"uint256"}],"outputs":[{"name":"_stakers","type":"address[]","internalType":"address[]"},{"name":"_amounts","type":"uint256[]","internalType":"uint256[]"},{"name":"_timestamps","type":"uint256[]","internalType":"uint256[]"},{"name":"_ranks","type":"uint256[]","internalType":"uint256[]"}],"stateMutability":"view"},{"type":"function","name":"getPastTotalSupply","inputs":[{"name":"timepoint","type":"uint256","internalType":"uint256"}],"outputs":[{"name":"","type":"uint256","internalType":"uint256"}],"stateMutability":"view"},{"type":"function","name":"getPastVotes","inputs":[{"name":"account","type":"address","internalType":"address"},{"name":"timepoint","type":"uint256","internalType":"uint256"}],"outputs":[{"name":"","type":"uint256","internalType":"uint256"}],"stateMutability":"view"},{"type":"function","name":"getStakeInfo","inputs":[{"name":"user","type":"address","internalType":"address"}],"outputs":[{"name":"amount","type":"uint256","internalType":"uint256"},{"name":"timestamp","type":"uint256","internalType":"uint256"},{"name":"rank","type":"uint256","internalType":"uint256"}],"stateMutability":"view"},{"type":"function","name":"getStakingStats","inputs":[],"outputs":[{"name":"_totalStaked","type":"uint256","internalType":"uint256"},{"name":"_totalStakers","type":"uint256","internalType":"uint256"},{"name":"_averageStake","type":"uint256","internalType":"uint256"}],"stateMutability":"view"},{"type":"function","name":"getTopStakers","inputs":[{"name":"count","type":"uint256","internalType":"uint256"}],"outputs":[{"name":"","type":"address[]","internalType":"address[]"},{"name":"","type":"uint256[]","internalType":"uint256[]"}],"stateMutability":"view"},{"type":"function","name":"getTotalStakers","inputs":[],"outputs":[{"name":"","type":"uint256","internalType":"uint256"}],"stateMutability":"view"},{"type":"function","name":"getVotes","inputs":[{"name":"account","type":"address","internalType":"address"}],"outputs":[{"name":"","type":"uint256","internalType":"uint256"}],"stateMutability":"view"},{"type":"function","name":"isStaker","inputs":[{"name":"","type":"address","internalType":"address"}],"outputs":[{"name":"","type":"bool","internalType":"bool"}],"stateMutability":"view"},{"type":"function","name":"name","inputs":[],"outputs":[{"name":"","type":"string","internalType":"string"}],"stateMutability":"view"},{"type":"function","name":"nonces","inputs":[{"name":"owner","type":"address","internalType":"address"}],"outputs":[{"name":"","type":"uint256","internalType":"uint256"}],"stateMutability":"view"},{"type":"function","name":"numCheckpoints","inputs":[{"name":"account","type":"address","internalType":"address"}],"outputs":[{"name":"","type":"uint32","internalType":"uint32"}],"stateMutability":"view"},{"type":"function","name":"owner","inputs":[],"outputs":[{"name":"","type":"address","internalType":"address"}],"stateMutability":"view"},{"type":"function","name":"permit","inputs":[{"name":"owner","type":"address","internalType":"address"},{"name":"spender","type":"address","internalType":"address"},{"name":"value","type":"uint256","internalType":"uint256"},{"name":"deadline","type":"uint256","internalType":"uint256"},{"name":"v","type":"uint8","internalType":"uint8"},{"name":"r","type":"bytes32","internalType":"bytes32"},{"name":"s","type":"bytes32","internalType":"bytes32"}],"outputs":[],"stateMutability":"nonpayable"},{"type":"function","name":"renounceOwnership","inputs":[],"outputs":[],"stateMutability":"nonpayable"},{"type":"function","name":"stake","inputs":[{"name":"amount","type":"uint256","internalType":"uint256"}],"outputs":[],"stateMutability":"nonpayable"},{"type":"function","name":"stakerAddresses","inputs":[{"name":"","type":"uint256","internalType":"uint256"}],"outputs":[{"name":"","type":"address","internalType":"address"}],"stateMutability":"view"},{"type":"function","name":"symbol","inputs":[],"outputs":[{"name":"","type":"string","internalType":"string"}],"stateMutability":"view"},{"type":"function","name":"totalStaked","inputs":[],"outputs":[{"name":"","type":"uint256","internalType":"uint256"}],"stateMutability":"view"},{"type":"function","name":"totalStakers","inputs":[],"outputs":[{"name":"","type":"uint256","internalType":"uint256"}],"stateMutability":"view"},{"type":"function","name":"totalSupply","inputs":[],"outputs":[{"name":"","type":"uint256","internalType":"uint256"}],"stateMutability":"view"},{"type":"function","name":"transfer","inputs":[{"name":"to","type":"address","internalType":"address"},{"name":"value","type":"uint256","internalType":"uint256"}],"outputs":[{"name":"","type":"bool","internalType":"bool"}],"stateMutability":"nonpayable"},{"type":"function","name":"transferFrom","inputs":[{"name":"from","type":"address","internalType":"address"},{"name":"to","type":"address","internalType":"address"},{"name":"value","type":"uint256","internalType":"uint256"}],"outputs":[{"name":"","type":"bool","internalType":"bool"}],"stateMutability":"nonpayable"},{"type":"function","name":"transferOwnership","inputs":[{"name":"newOwner","type":"address","internalType":"address"}],"outputs":[],"stateMutability":"nonpayable"},{"type":"function","name":"unstake","inputs":[{"name":"amount","type":"uint256","internalType":"uint256"}],"outputs":[],"stateMutability":"nonpayable"},{"type":"function","name":"updateLeaderboard","inputs":[],"outputs":[],"stateMutability":"nonpayable"},{"type":"function","name":"userStakes","inputs":[{"name":"","type":"address","internalType":"address"}],"outputs":[{"name":"amount","type":"uint256","internalType":"uint256"},{"name":"timestamp","type":"uint256","internalType":"uint256"},{"name":"rank","type":"uint256","internalType":"uint256"}],"stateMutability":"view"},{"type":"event","name":"Approval","inputs":[{"name":"owner","type":"address","indexed":true,"internalType":"address"},{"name":"spender","type":"address","indexed":true,"internalType":"address"},{"name":"value","type":"uint256","indexed":false,"internalType":"uint256"}],"anonymous":false},{"type":"event","name":"DelegateChanged","inputs":[{"name":"delegator","type":"address","indexed":true,"internalType":"address"},{"name":"fromDelegate","type":"address","indexed":true,"internalType":"address"},{"name":"toDelegate","type":"address","indexed":true,"internalType":"address"}],"anonymous":false},{"type":"event","name":"DelegateVotesChanged","inputs":[{"name":"delegate","type":"address","indexed":true,"internalType":"address"},{"name":"previousVotes","type":"uint256","indexed":false,"internalType":"uint256"},{"name":"newVotes","type":"uint256","indexed":false,"internalType":"uint256"}],"anonymous":false},{"type":"event","name":"EIP712DomainChanged","inputs":[],"anonymous":false},{"type":"event","name":"LeaderboardUpdated","inputs":[{"name":"timestamp","type":"uint256","indexed":false,"internalType":"uint256"}],"anonymous":false},{"type":"event","name":"OwnershipTransferred","inputs":[{"name":"previousOwner","type":"address","indexed":true,"internalType":"address"},{"name":"newOwner","type":"address","indexed":true,"internalType":"address"}],"anonymous":false},{"type":"event","name":"Staked","inputs":[{"name":"user","type":"address","indexed":true,"internalType":"address"},{"name":"amount","type":"uint256","indexed":false,"internalType":"uint256"}],"anonymous":false},{"type":"event","name":"Transfer","inputs":[{"name":"from","type":"address","indexed":true,"internalType":"address"},{"name":"to","type":"address","indexed":true,"internalType":"address"},{"name":"value","type":"uint256","indexed":false,"internalType":"uint256"}],"anonymous":false},{"type":"event","name":"Unstaked","inputs":[{"name":"user","type":"address","indexed":true,"internalType":"address"},{"name":"amount","type":"uint256","indexed":false,"internalType":"uint256"}],"anonymous":false},{"type":"error","name":"CheckpointUnorderedInsertion","inputs":[]},{"type":"error","name":"ECDSAInvalidSignature","inputs":[]},{"type":"error","name":"ECDSAInvalidSignatureLength","inputs":[{"name":"length","type":"uint256","internalType":"uint256"}]},{"type":"error","name":"ECDSAInvalidSignatureS","inputs":[{"name":"s","type":"bytes32","internalType":"bytes32"}]},{"type":"error","name":"ERC20ExceededSafeSupply","inputs":[{"name":"increasedSupply","type":"uint256","internalType":"uint256"},{"name":"cap","type":"uint256","internalType":"uint256"}]},{"type":"error","name":"ERC20InsufficientAllowance","inputs":[{"name":"spender","type":"address","internalType":"address"},{"name":"allowance","type":"uint256","internalType":"uint256"},{"name":"needed","type":"uint256","internalType":"uint256"}]},{"type":"error","name":"ERC20InsufficientBalance","inputs":[{"name":"sender","type":"address","internalType":"address"},{"name":"balance","type":"uint256","internalType":"uint256"},{"name":"needed","type":"uint256","internalType":"uint256"}]},{"type":"error","name":"ERC20InvalidApprover","inputs":[{"name":"approver","type":"address","internalType":"address"}]},{"type":"error","name":"ERC20InvalidReceiver","inputs":[{"name":"receiver","type":"address","internalType":"address"}]},{"type":"error","name":"ERC20InvalidSender","inputs":[{"name":"sender","type":"address","internalType":"address"}]},{"type":"error","name":"ERC20InvalidSpender","inputs":[{"name":"spender","type":"address","internalType":"address"}]},{"type":"error","name":"ERC2612ExpiredSignature","inputs":[{"name":"deadline","type":"uint256","internalType":"uint256"}]},{"type":"error","name":"ERC2612InvalidSigner","inputs":[{"name":"signer","type":"address","internalType":"address"},{"name":"owner","type":"address","internalType":"address"}]},{"type":"error","name":"ERC5805FutureLookup","inputs":[{"name":"timepoint","type":"uint256","internalType":"uint256"},{"name":"clock","type":"uint48","internalType":"uint48"}]},{"type":"error","name":"ERC6372InconsistentClock","inputs":[]},{"type":"error","name":"InvalidAccountNonce","inputs":[{"name":"account","type":"address","internalType":"address"},{"name":"currentNonce","type":"uint256","internalType":"uint256"}]},{"type":"error","name":"InvalidShortString","inputs":[]},{"type":"error","name":"OwnableInvalidOwner","inputs":[{"name":"owner","type":"address","internalType":"address"}]},{"type":"error","name":"OwnableUnauthorizedAccount","inputs":[{"name":"account","type":"address","internalType":"address"}]},{"type":"error","name":"ReentrancyGuardReentrantCall","inputs":[]},{"type":"error","name":"SafeCastOverflowedUintDowncast","inputs":[{"name":"bits","type":"uint8","internalType":"uint8"},{"name":"value","type":"uint256","internalType":"uint256"}]},{"type":"error","name":"StringTooLong","inputs":[{"name":"str","type":"string","internalType":"string"}]},{"type":"error","name":"VotesExpiredSignature","inputs":[{"name":"expiry","type":"uint256","internalType":"uint256"}]}],"bytecode":{"object":"0x61016060405234801562000011575f80fd5b50604051620039de380380620039de8339810160408190526200003491620002ca565b336040518060400160405280601081526020016f29ba30b5b2b21022aa24102a37b5b2b760811b81525080604051806040016040528060018152602001603160f81b8152506040518060400160405280601081526020016f29ba30b5b2b21022aa24102a37b5b2b760811b815250604051806040016040528060048152602001630e68aa8960e31b8152508160039081620000d0919062000399565b506004620000df828262000399565b50620000f191508390506005620001ff565b6101205262000102816006620001ff565b61014052815160208084019190912060e052815190820120610100524660a0526200018f60e05161010051604080517f8b73c3c69bb8fe3d512ecc4cf759cc79239f7b179b0ffacaa9a75d522b39400f60208201529081019290925260608201524660808201523060a08201525f9060c00160405160208183030381529060405280519060200120905090565b60805250503060c052506001600160a01b038116620001c857604051631e4fbdf760e01b81525f60048201526024015b60405180910390fd5b620001d38162000237565b506001600c55600d80546001600160a01b0319166001600160a01b0392909216919091179055620004d2565b5f6020835110156200021e57620002168362000288565b905062000231565b816200022b848262000399565b5060ff90505b92915050565b600b80546001600160a01b038381166001600160a01b0319831681179093556040519116919082907f8be0079c531659141344cd1fd0a4f28419497f9722a3daafe3b4186f6b6457e0905f90a35050565b5f80829050601f81511115620002b5578260405163305a27a960e01b8152600401620001bf919062000461565b8051620002c282620004ae565b179392505050565b5f60208284031215620002db575f80fd5b81516001600160a01b0381168114620002f2575f80fd5b9392505050565b634e487b7160e01b5f52604160045260245ffd5b600181811c908216806200032257607f821691505b6020821081036200034157634e487b7160e01b5f52602260045260245ffd5b50919050565b601f82111562000394575f81815260208120601f850160051c810160208610156200036f5750805b601f850160051c820191505b8181101562000390578281556001016200037b565b5050505b505050565b81516001600160401b03811115620003b557620003b5620002f9565b620003cd81620003c684546200030d565b8462000347565b602080601f83116001811462000403575f8415620003eb5750858301515b5f19600386901b1c1916600185901b17855562000390565b5f85815260208120601f198616915b82811015620004335788860151825594840194600190910190840162000412565b50858210156200045157878501515f19600388901b60f8161c191681555b5050505050600190811b01905550565b5f6020808352835180828501525f5b818110156200048e5785810183015185820160400152820162000470565b505f604082860101526040601f19601f8301168501019250505092915050565b8051602080830151919081101562000341575f1960209190910360031b1b16919050565b60805160a05160c05160e0516101005161012051610140516134ba620005245f395f61224101525f61221401525f611f8801525f611f6001525f611ebb01525f611ee501525f611f0f01526134ba5ff3fe608060405234801561000f575f80fd5b5060043610610255575f3560e01c8063817b1cd211610140578063a694fc3a116100bf578063c3cda52011610084578063c3cda520146105bd578063c80ca39a146105d0578063d505accf146105f1578063dd62ed3e14610604578063f1127ed81461063c578063f2fde38b1461067b575f80fd5b8063a694fc3a1461052b578063a9059cbb1461053e578063b4b5ea5714610551578063c1dd608414610564578063c34531531461056c575f80fd5b80638e539e8c116101055780638e539e8c146104cb57806391ddadf4146104de57806394c784e8146104fd57806395d89b41146105105780639ab24eb014610518575f80fd5b8063817b1cd21461044457806384b0196e1461044d57806386989038146104685780638da5cb5b146104715780638da7ad2314610482575f80fd5b8063459598a2116101d75780636e4f88c81161019c5780636e4f88c8146103a25780636f1e8533146103b75780636fcfff45146103d957806370a0823114610401578063715018a6146104295780637ecebe0014610431575f80fd5b8063459598a2146103295780634bf5d7e91461035457806353734b021461035c578063587cde1e146103645780635c19a95c1461038f575f80fd5b8063313ce5671161021d578063313ce567146102d457806331ed0db4146102e35780633644e515146102eb57806338ba40e1146102f35780633a46b1a814610316575f80fd5b806306fdde0314610259578063095ea7b31461027757806318160ddd1461029a57806323b872dd146102ac5780632e17de78146102bf575b5f80fd5b61026161068e565b60405161026e9190612f66565b60405180910390f35b61028a610285366004612f93565b61071e565b604051901515815260200161026e565b6002545b60405190815260200161026e565b61028a6102ba366004612fbb565b610737565b6102d26102cd366004612ff4565b61075a565b005b6040516012815260200161026e565b600f5461029e565b61029e6109c6565b61030661030136600461300b565b6109d4565b60405161026e949392919061309b565b61029e610324366004612f93565b610c6d565b61033c610337366004612ff4565b610ca7565b6040516001600160a01b03909116815260200161026e565b610261610ccf565b6102d2610d47565b61033c6103723660046130e7565b6001600160a01b039081165f908152600860205260409020541690565b6102d261039d3660046130e7565b6110f4565b6103aa611103565b60405161026e9190613100565b61028a6103c53660046130e7565b60116020525f908152604090205460ff1681565b6103ec6103e73660046130e7565b611162565b60405163ffffffff909116815260200161026e565b61029e61040f3660046130e7565b6001600160a01b03165f9081526020819052604090205490565b6102d261116c565b61029e61043f3660046130e7565b61117f565b61029e600e5481565b610455611189565b60405161026e9796959493929190613112565b61029e600f5481565b600b546001600160a01b031661033c565b6104b06104903660046130e7565b60126020525f908152604090208054600182015460029092015490919083565b6040805193845260208401929092529082015260600161026e565b61029e6104d9366004612ff4565b6111cb565b6104e66111ef565b60405165ffffffffffff909116815260200161026e565b600d5461033c906001600160a01b031681565b6102616111f8565b61029e6105263660046130e7565b611207565b6102d2610539366004612ff4565b611227565b61028a61054c366004612f93565b6114f1565b61029e61055f3660046130e7565b6114fe565b6104b0611508565b6104b061057a3660046130e7565b6001600160a01b03165f90815260126020908152604091829020825160608101845281548082526001830154938201849052600290920154930183905292909190565b6102d26105cb366004613191565b611531565b6105e36105de366004612ff4565b6115ed565b60405161026e9291906131e5565b6102d26105ff366004613212565b611a53565b61029e610612366004613277565b6001600160a01b039182165f90815260016020908152604080832093909416825291909152205490565b61064f61064a3660046132a8565b611b89565b60408051825165ffffffffffff1681526020928301516001600160d01b0316928101929092520161026e565b6102d26106893660046130e7565b611bad565b60606003805461069d906132e5565b80601f01602080910402602001604051908101604052809291908181526020018280546106c9906132e5565b80156107145780601f106106eb57610100808354040283529160200191610714565b820191905f5260205f20905b8154815290600101906020018083116106f757829003601f168201915b5050505050905090565b5f3361072b818585611be7565b60019150505b92915050565b5f33610744858285611bf9565b61074f858585611c75565b506001949350505050565b610762611cd2565b5f81116107b65760405162461bcd60e51b815260206004820152601d60248201527f416d6f756e74206d7573742062652067726561746572207468616e203000000060448201526064015b60405180910390fd5b335f908152602081905260409020548111156108145760405162461bcd60e51b815260206004820152601960248201527f496e73756666696369656e7420734554482062616c616e63650000000000000060448201526064016107ad565b335f908152601260205260409020548111156108725760405162461bcd60e51b815260206004820152601a60248201527f496e73756666696369656e74207374616b656420616d6f756e7400000000000060448201526064016107ad565b61087c3382611cfc565b335f908152601260205260408120805483929061089a908490613331565b9091555050335f9081526012602052604081205490036108bd576108bd33611d30565b600d5460405163a9059cbb60e01b8152336004820152602481018390526001600160a01b039091169063a9059cbb906044016020604051808303815f875af115801561090b573d5f803e3d5ffd5b505050506040513d601f19601f8201168201806040525081019061092f9190613344565b61096d5760405162461bcd60e51b815260206004820152600f60248201526e151c985b9cd9995c8819985a5b1959608a1b60448201526064016107ad565b80600e5f82825461097e9190613331565b909155505060405181815233907f0f5bb82176feb1b5e747e28471aa92156a04d9f3ab9f45f28e2d704232b93f75906020015b60405180910390a26109c36001600c55565b50565b5f6109cf611eaf565b905090565b6060806060805f86601080549050116109ed575f6109fb565b6010546109fb908890613331565b90505f818711610a0b5786610a0d565b815b90508067ffffffffffffffff811115610a2857610a28613363565b604051908082528060200260200182016040528015610a51578160200160208202803683370190505b5095508067ffffffffffffffff811115610a6d57610a6d613363565b604051908082528060200260200182016040528015610a96578160200160208202803683370190505b5094508067ffffffffffffffff811115610ab257610ab2613363565b604051908082528060200260200182016040528015610adb578160200160208202803683370190505b5093508067ffffffffffffffff811115610af757610af7613363565b604051908082528060200260200182016040528015610b20578160200160208202803683370190505b5092505f5b81811015610c61575f6010610b3a838c613377565b81548110610b4a57610b4a61338a565b905f5260205f20015f9054906101000a90046001600160a01b0316905080888381518110610b7a57610b7a61338a565b6001600160a01b039283166020918202929092018101919091529082165f908152601290915260409020548751889084908110610bb957610bb961338a565b60200260200101818152505060125f826001600160a01b03166001600160a01b031681526020019081526020015f2060010154868381518110610bfe57610bfe61338a565b60200260200101818152505060125f826001600160a01b03166001600160a01b031681526020019081526020015f2060020154858381518110610c4357610c4361338a565b60209081029190910101525080610c598161339e565b915050610b25565b50505092959194509250565b5f610c97610c7a83611fd8565b6001600160a01b0385165f90815260096020526040902090612026565b6001600160d01b03169392505050565b60108181548110610cb6575f80fd5b5f918252602090912001546001600160a01b0316905081565b6060610cd96120d6565b65ffffffffffff16610ce96111ef565b65ffffffffffff1614610d0f576040516301bfc1c560e61b815260040160405180910390fd5b5060408051808201909152601d81527f6d6f64653d626c6f636b6e756d6265722666726f6d3d64656661756c74000000602082015290565b610d4f6120e0565b6010545f9067ffffffffffffffff811115610d6c57610d6c613363565b604051908082528060200260200182016040528015610d95578160200160208202803683370190505b506010549091505f9067ffffffffffffffff811115610db657610db6613363565b604051908082528060200260200182016040528015610ddf578160200160208202803683370190505b5090505f5b601054811015610eb95760108181548110610e0157610e0161338a565b905f5260205f20015f9054906101000a90046001600160a01b0316838281518110610e2e57610e2e61338a565b60200260200101906001600160a01b031690816001600160a01b03168152505060125f60108381548110610e6457610e6461338a565b5f9182526020808320909101546001600160a01b031683528201929092526040019020548251839083908110610e9c57610e9c61338a565b602090810291909101015280610eb18161339e565b915050610de4565b505f5b825181101561104f575f610ed1826001613377565b90505b835181101561103c57828181518110610eef57610eef61338a565b6020026020010151838381518110610f0957610f0961338a565b6020026020010151101561102a575f838381518110610f2a57610f2a61338a565b60200260200101519050838281518110610f4657610f4661338a565b6020026020010151848481518110610f6057610f6061338a565b60200260200101818152505080848381518110610f7f57610f7f61338a565b6020026020010181815250505f858481518110610f9e57610f9e61338a565b60200260200101519050858381518110610fba57610fba61338a565b6020026020010151868581518110610fd457610fd461338a565b60200260200101906001600160a01b031690816001600160a01b031681525050808684815181106110075761100761338a565b60200260200101906001600160a01b031690816001600160a01b03168152505050505b806110348161339e565b915050610ed4565b50806110478161339e565b915050610ebc565b505f5b82518110156110bc57611066816001613377565b60125f85848151811061107b5761107b61338a565b60200260200101516001600160a01b03166001600160a01b031681526020019081526020015f206002018190555080806110b49061339e565b915050611052565b506040514281527fc5f0fcb9532743fcf8bf92b049d6eb21320fab68a6a987da219d6d95b5b262c69060200160405180910390a15050565b336110ff818361210d565b5050565b6060601080548060200260200160405190810160405280929190818152602001828054801561071457602002820191905f5260205f20905b81546001600160a01b0316815260019091019060200180831161113b575050505050905090565b5f6107318261217e565b6111746120e0565b61117d5f61219f565b565b5f610731826121f0565b5f6060805f805f606061119a61220d565b6111a261223a565b604080515f80825260208201909252600f60f81b9b939a50919850469750309650945092509050565b5f6111e06111d883611fd8565b600a90612026565b6001600160d01b031692915050565b5f6109cf6120d6565b60606004805461069d906132e5565b6001600160a01b0381165f9081526009602052604081206111e090612267565b61122f611cd2565b5f81116112755760405162461bcd60e51b815260206004820152601460248201527309aeae6e840e6e8c2d6ca40e6dedaca40c88aa8960631b60448201526064016107ad565b600d546040516370a0823160e01b815233600482015282916001600160a01b0316906370a0823190602401602060405180830381865afa1580156112bb573d5f803e3d5ffd5b505050506040513d601f19601f820116820180604052508101906112df91906133b6565b101561132d5760405162461bcd60e51b815260206004820152601960248201527f496e73756666696369656e7420644554482062616c616e63650000000000000060448201526064016107ad565b600d546040516323b872dd60e01b8152336004820152306024820152604481018390526001600160a01b03909116906323b872dd906064016020604051808303815f875af1158015611381573d5f803e3d5ffd5b505050506040513d601f19601f820116820180604052508101906113a59190613344565b6113e35760405162461bcd60e51b815260206004820152600f60248201526e151c985b9cd9995c8819985a5b1959608a1b60448201526064016107ad565b335f9081526011602052604090205460ff16611467576010805460018181019092557f1b6847dc741a1b0cd08d278845f9d819d87b734759afb55fe2de5cb82a9ae6720180546001600160a01b031916339081179091555f908152601160205260408120805460ff1916909217909155600f8054916114618361339e565b91905055505b335f9081526012602052604081208054839290611485908490613377565b9091555050335f818152601260205260409020426001909101556114a9908261229e565b80600e5f8282546114ba9190613377565b909155505060405181815233907f9e71bc8eea02a63969f509818f2dafb9254532904319f9dbda79b67bd34a5f3d906020016109b1565b5f3361072b818585611c75565b5f61073182611207565b600e54600f545f8161151a575f61152a565b600f54600e5461152a91906133e1565b9050909192565b8342111561155557604051632341d78760e11b8152600481018590526024016107ad565b604080517fe48329057bfd03d55e49b547132e39cffd9c1820ad7b9d4c5307691425d15adf60208201526001600160a01b0388169181019190915260608101869052608081018590525f906115ce906115c69060a001604051602081830303815290604052805190602001206122d2565b8585856122fe565b90506115da818761232a565b6115e4818861210d565b50505050505050565b6060805f600f5484116116005783611604565b600f545b90505f8167ffffffffffffffff81111561162057611620613363565b604051908082528060200260200182016040528015611649578160200160208202803683370190505b5090505f8267ffffffffffffffff81111561166657611666613363565b60405190808252806020026020018201604052801561168f578160200160208202803683370190505b509050825f036116a457909590945092505050565b6010545f9067ffffffffffffffff8111156116c1576116c1613363565b6040519080825280602002602001820160405280156116ea578160200160208202803683370190505b506010549091505f9067ffffffffffffffff81111561170b5761170b613363565b604051908082528060200260200182016040528015611734578160200160208202803683370190505b5090505f5b60105481101561180e57601081815481106117565761175661338a565b905f5260205f20015f9054906101000a90046001600160a01b03168382815181106117835761178361338a565b60200260200101906001600160a01b031690816001600160a01b03168152505060125f601083815481106117b9576117b961338a565b5f9182526020808320909101546001600160a01b0316835282019290925260400190205482518390839081106117f1576117f161338a565b6020908102919091010152806118068161339e565b915050611739565b505f5b82518110156119a4575f611826826001613377565b90505b8351811015611991578281815181106118445761184461338a565b602002602001015183838151811061185e5761185e61338a565b6020026020010151101561197f575f83838151811061187f5761187f61338a565b6020026020010151905083828151811061189b5761189b61338a565b60200260200101518484815181106118b5576118b561338a565b602002602001018181525050808483815181106118d4576118d461338a565b6020026020010181815250505f8584815181106118f3576118f361338a565b6020026020010151905085838151811061190f5761190f61338a565b60200260200101518685815181106119295761192961338a565b60200260200101906001600160a01b031690816001600160a01b0316815250508086848151811061195c5761195c61338a565b60200260200101906001600160a01b031690816001600160a01b03168152505050505b806119898161339e565b915050611829565b508061199c8161339e565b915050611811565b505f5b85811015611a44578281815181106119c1576119c161338a565b60200260200101518582815181106119db576119db61338a565b60200260200101906001600160a01b031690816001600160a01b031681525050818181518110611a0d57611a0d61338a565b6020026020010151848281518110611a2757611a2761338a565b602090810291909101015280611a3c8161339e565b9150506119a7565b50929791965090945050505050565b83421115611a775760405163313c898160e11b8152600481018590526024016107ad565b5f7f6e71edae12b1b97f4d1f60370fef10105fa2faae0126114a169c64845d6126c9888888611ac28c6001600160a01b03165f90815260076020526040902080546001810190915590565b6040805160208101969096526001600160a01b0394851690860152929091166060840152608083015260a082015260c0810186905260e0016040516020818303038152906040528051906020012090505f611b1c826122d2565b90505f611b2b828787876122fe565b9050896001600160a01b0316816001600160a01b031614611b72576040516325c0072360e11b81526001600160a01b0380831660048301528b1660248201526044016107ad565b611b7d8a8a8a611be7565b50505050505050505050565b604080518082019091525f8082526020820152611ba6838361237c565b9392505050565b611bb56120e0565b6001600160a01b038116611bde57604051631e4fbdf760e01b81525f60048201526024016107ad565b6109c38161219f565b611bf483838360016123b0565b505050565b6001600160a01b038381165f908152600160209081526040808320938616835292905220545f19811015611c6f5781811015611c6157604051637dc7a0d960e11b81526001600160a01b038416600482015260248101829052604481018390526064016107ad565b611c6f84848484035f6123b0565b50505050565b6001600160a01b038316611c9e57604051634b637e8f60e11b81525f60048201526024016107ad565b6001600160a01b038216611cc75760405163ec442f0560e01b81525f60048201526024016107ad565b611bf4838383612482565b6002600c5403611cf557604051633ee5aeb560e01b815260040160405180910390fd5b6002600c55565b6001600160a01b038216611d2557604051634b637e8f60e11b81525f60048201526024016107ad565b6110ff825f83612482565b6001600160a01b0381165f9081526011602052604090205460ff16156109c3575f805f5b601054811015611db257836001600160a01b031660108281548110611d7b57611d7b61338a565b5f918252602090912001546001600160a01b031603611da05780925060019150611db2565b80611daa8161339e565b915050611d54565b508015611bf457601054611dc890600190613331565b821015611e465760108054611ddf90600190613331565b81548110611def57611def61338a565b5f91825260209091200154601080546001600160a01b039092169184908110611e1a57611e1a61338a565b905f5260205f20015f6101000a8154816001600160a01b0302191690836001600160a01b031602179055505b6010805480611e5757611e57613400565b5f828152602080822083015f1990810180546001600160a01b03191690559092019092556001600160a01b03851682526011905260408120805460ff19169055600f805491611ea583613414565b9190505550505050565b5f306001600160a01b037f000000000000000000000000000000000000000000000000000000000000000016148015611f0757507f000000000000000000000000000000000000000000000000000000000000000046145b15611f3157507f000000000000000000000000000000000000000000000000000000000000000090565b6109cf604080517f8b73c3c69bb8fe3d512ecc4cf759cc79239f7b179b0ffacaa9a75d522b39400f60208201527f0000000000000000000000000000000000000000000000000000000000000000918101919091527f000000000000000000000000000000000000000000000000000000000000000060608201524660808201523060a08201525f9060c00160405160208183030381529060405280519060200120905090565b5f80611fe26111ef565b90508065ffffffffffff16831061201d57604051637669fc0f60e11b81526004810184905265ffffffffffff821660248201526044016107ad565b611ba68361248d565b81545f9081816005811115612082575f61203f846124c3565b6120499085613331565b5f8881526020902090915081015465ffffffffffff908116908716101561207257809150612080565b61207d816001613377565b92505b505b5f61208f8787858561261b565b905080156120c9576120b3876120a6600184613331565b5f91825260209091200190565b54600160301b90046001600160d01b03166120cb565b5f5b979650505050505050565b5f6109cf4361248d565b600b546001600160a01b0316331461117d5760405163118cdaa760e01b81523360048201526024016107ad565b6001600160a01b038281165f8181526008602052604080822080548686166001600160a01b0319821681179092559151919094169392849290917f3134e8a2e6d97e929a7e54011ea5485d7d196dd5f0ba4d4ef95803e8e3fc257f9190a4611bf481836121798661267a565b612697565b6001600160a01b0381165f9081526009602052604081205461073190612800565b600b80546001600160a01b038381166001600160a01b0319831681179093556040519116919082907f8be0079c531659141344cd1fd0a4f28419497f9722a3daafe3b4186f6b6457e0905f90a35050565b6001600160a01b0381165f90815260076020526040812054610731565b60606109cf7f00000000000000000000000000000000000000000000000000000000000000006005612830565b60606109cf7f00000000000000000000000000000000000000000000000000000000000000006006612830565b80545f90801561229657612280836120a6600184613331565b54600160301b90046001600160d01b0316611ba6565b5f9392505050565b6001600160a01b0382166122c75760405163ec442f0560e01b81525f60048201526024016107ad565b6110ff5f8383612482565b5f6107316122de611eaf565b8360405161190160f01b8152600281019290925260228201526042902090565b5f805f8061230e888888886128d9565b92509250925061231e82826129a1565b50909695505050505050565b6001600160a01b0382165f908152600760205260409020805460018101909155818114611bf4576040516301d4b62360e61b81526001600160a01b0384166004820152602481018290526044016107ad565b604080518082019091525f80825260208201526001600160a01b0383165f908152600960205260409020611ba69083612a59565b6001600160a01b0384166123d95760405163e602df0560e01b81525f60048201526024016107ad565b6001600160a01b03831661240257604051634a1406b160e11b81525f60048201526024016107ad565b6001600160a01b038085165f9081526001602090815260408083209387168352929052208290558015611c6f57826001600160a01b0316846001600160a01b03167f8c5be1e5ebec7d5bd14f71427d1e84f3dd0314c0f7b2291e5b200ac8c7c3b9258460405161247491815260200190565b60405180910390a350505050565b611bf4838383612ac6565b5f65ffffffffffff8211156124bf576040516306dfcc6560e41b815260306004820152602481018390526044016107ad565b5090565b5f600182116124d0575090565b816001600160801b82106124e95760809190911c9060401b5b6801000000000000000082106125045760409190911c9060201b5b640100000000821061251b5760209190911c9060101b5b6201000082106125305760109190911c9060081b5b61010082106125445760089190911c9060041b5b601082106125575760049190911c9060021b5b600482106125635760011b5b600302600190811c9081858161257b5761257b6133cd565b048201901c90506001818581612593576125936133cd565b048201901c905060018185816125ab576125ab6133cd565b048201901c905060018185816125c3576125c36133cd565b048201901c905060018185816125db576125db6133cd565b048201901c905060018185816125f3576125f36133cd565b048201901c905061261281858161260c5761260c6133cd565b04821190565b90039392505050565b5f5b81831015612672575f6126308484612b2c565b5f8781526020902090915065ffffffffffff86169082015465ffffffffffff16111561265e5780925061266c565b612669816001613377565b93505b5061261d565b509392505050565b6001600160a01b0381165f90815260208190526040812054610731565b816001600160a01b0316836001600160a01b0316141580156126b857505f81115b15611bf4576001600160a01b0383161561275f576001600160a01b0383165f90815260096020526040812081906126fa90612b466126f586612b51565b612b84565b6001600160d01b031691506001600160d01b03169150846001600160a01b03167fdec2bacdd2f05b59de34da9b523dff8be42e5e38e818c82fdb0bae774387a7248383604051612754929190918252602082015260400190565b60405180910390a250505b6001600160a01b03821615611bf4576001600160a01b0382165f908152600960205260408120819061279790612bbc6126f586612b51565b6001600160d01b031691506001600160d01b03169150836001600160a01b03167fdec2bacdd2f05b59de34da9b523dff8be42e5e38e818c82fdb0bae774387a72483836040516127f1929190918252602082015260400190565b60405180910390a25050505050565b5f63ffffffff8211156124bf576040516306dfcc6560e41b815260206004820152602481018390526044016107ad565b606060ff831461284a5761284383612bc7565b9050610731565b818054612856906132e5565b80601f0160208091040260200160405190810160405280929190818152602001828054612882906132e5565b80156128cd5780601f106128a4576101008083540402835291602001916128cd565b820191905f5260205f20905b8154815290600101906020018083116128b057829003601f168201915b50505050509050610731565b5f80807f7fffffffffffffffffffffffffffffff5d576e7357a4501ddfe92f46681b20a084111561291257505f91506003905082612997565b604080515f808252602082018084528a905260ff891692820192909252606081018790526080810186905260019060a0016020604051602081039080840390855afa158015612963573d5f803e3d5ffd5b5050604051601f1901519150506001600160a01b03811661298e57505f925060019150829050612997565b92505f91508190505b9450945094915050565b5f8260038111156129b4576129b4613429565b036129bd575050565b60018260038111156129d1576129d1613429565b036129ef5760405163f645eedf60e01b815260040160405180910390fd5b6002826003811115612a0357612a03613429565b03612a245760405163fce698f760e01b8152600481018290526024016107ad565b6003826003811115612a3857612a38613429565b036110ff576040516335e2f38360e21b8152600481018290526024016107ad565b604080518082019091525f8082526020820152825f018263ffffffff1681548110612a8657612a8661338a565b5f9182526020918290206040805180820190915291015465ffffffffffff81168252600160301b90046001600160d01b0316918101919091529392505050565b612ad1838383612c04565b6001600160a01b038316612b21575f612ae960025490565b90506001600160d01b0380821115612b1e57604051630e58ae9360e11b815260048101839052602481018290526044016107ad565b50505b611bf4838383612d2a565b5f612b3a60028484186133e1565b611ba690848416613377565b5f611ba6828461343d565b5f6001600160d01b038211156124bf576040516306dfcc6560e41b815260d06004820152602481018390526044016107ad565b5f80612baf612b916111ef565b612ba7612b9d88612267565b868863ffffffff16565b879190612d9f565b915091505b935093915050565b5f611ba68284613464565b60605f612bd383612dac565b6040805160208082528183019092529192505f91906020820181803683375050509182525060208101929092525090565b6001600160a01b038316612c2e578060025f828254612c239190613377565b90915550612c9e9050565b6001600160a01b0383165f9081526020819052604090205481811015612c805760405163391434e360e21b81526001600160a01b038516600482015260248101829052604481018390526064016107ad565b6001600160a01b0384165f9081526020819052604090209082900390555b6001600160a01b038216612cba57600280548290039055612cd8565b6001600160a01b0382165f9081526020819052604090208054820190555b816001600160a01b0316836001600160a01b03167fddf252ad1be2c89b69c2b068fc378daa952ba7f163c4a11628f55a4df523b3ef83604051612d1d91815260200190565b60405180910390a3505050565b6001600160a01b038316612d4c57612d49600a612bbc6126f584612b51565b50505b6001600160a01b038216612d6e57612d6b600a612b466126f584612b51565b50505b6001600160a01b038381165f90815260086020526040808220548584168352912054611bf492918216911683612697565b5f80612baf858585612dd3565b5f60ff8216601f81111561073157604051632cd44ac360e21b815260040160405180910390fd5b82545f9081908015612ec9575f612def876120a6600185613331565b805490915065ffffffffffff80821691600160301b90046001600160d01b0316908816821115612e3257604051632520601d60e01b815260040160405180910390fd5b8765ffffffffffff168265ffffffffffff1603612e6b57825465ffffffffffff16600160301b6001600160d01b03891602178355612ebb565b6040805180820190915265ffffffffffff808a1682526001600160d01b03808a1660208085019182528d54600181018f555f8f81529190912094519151909216600160301b029216919091179101555b9450859350612bb492505050565b50506040805180820190915265ffffffffffff80851682526001600160d01b0380851660208085019182528854600181018a555f8a815291822095519251909316600160301b029190931617920191909155905081612bb4565b5f81518084525f5b81811015612f4757602081850181015186830182015201612f2b565b505f602082860101526020601f19601f83011685010191505092915050565b602081525f611ba66020830184612f23565b80356001600160a01b0381168114612f8e575f80fd5b919050565b5f8060408385031215612fa4575f80fd5b612fad83612f78565b946020939093013593505050565b5f805f60608486031215612fcd575f80fd5b612fd684612f78565b9250612fe460208501612f78565b9150604084013590509250925092565b5f60208284031215613004575f80fd5b5035919050565b5f806040838503121561301c575f80fd5b50508035926020909101359150565b5f8151808452602080850194508084015f5b838110156130625781516001600160a01b03168752958201959082019060010161303d565b509495945050505050565b5f8151808452602080850194508084015f5b838110156130625781518752958201959082019060010161307f565b608081525f6130ad608083018761302b565b82810360208401526130bf818761306d565b905082810360408401526130d3818661306d565b905082810360608401526120cb818561306d565b5f602082840312156130f7575f80fd5b611ba682612f78565b602081525f611ba6602083018461302b565b60ff60f81b8816815260e060208201525f61313060e0830189612f23565b82810360408401526131428189612f23565b606084018890526001600160a01b038716608085015260a0840186905283810360c08501529050613173818561306d565b9a9950505050505050505050565b803560ff81168114612f8e575f80fd5b5f805f805f8060c087890312156131a6575f80fd5b6131af87612f78565b955060208701359450604087013593506131cb60608801613181565b92506080870135915060a087013590509295509295509295565b604081525f6131f7604083018561302b565b8281036020840152613209818561306d565b95945050505050565b5f805f805f805f60e0888a031215613228575f80fd5b61323188612f78565b965061323f60208901612f78565b9550604088013594506060880135935061325b60808901613181565b925060a0880135915060c0880135905092959891949750929550565b5f8060408385031215613288575f80fd5b61329183612f78565b915061329f60208401612f78565b90509250929050565b5f80604083850312156132b9575f80fd5b6132c283612f78565b9150602083013563ffffffff811681146132da575f80fd5b809150509250929050565b600181811c908216806132f957607f821691505b60208210810361331757634e487b7160e01b5f52602260045260245ffd5b50919050565b634e487b7160e01b5f52601160045260245ffd5b818103818111156107315761073161331d565b5f60208284031215613354575f80fd5b81518015158114611ba6575f80fd5b634e487b7160e01b5f52604160045260245ffd5b808201808211156107315761073161331d565b634e487b7160e01b5f52603260045260245ffd5b5f600182016133af576133af61331d565b5060010190565b5f602082840312156133c6575f80fd5b5051919050565b634e487b7160e01b5f52601260045260245ffd5b5f826133fb57634e487b7160e01b5f52601260045260245ffd5b500490565b634e487b7160e01b5f52603160045260245ffd5b5f816134225761342261331d565b505f190190565b634e487b7160e01b5f52602160045260245ffd5b6001600160d01b0382811682821603908082111561345d5761345d61331d565b5092915050565b6001600160d01b0381811683821601908082111561345d5761345d61331d56fea2646970667358221220b728b93a730b44780784f9f2e1fecea911ecfbcd462513897d5199228a6818cf64736f6c63430008140033","linkReferences":{}},"methodIdentifiers":{"CLOCK_MODE()":"4bf5d7e9","DOMAIN_SEPARATOR()":"3644e515","allowance(address,address)":"dd62ed3e","approve(address,uint256)":"095ea7b3","balanceOf(address)":"70a08231","checkpoints(address,uint32)":"f1127ed8","clock()":"91ddadf4","dETHToken()":"94c784e8","decimals()":"313ce567","delegate(address)":"5c19a95c","delegateBySig(address,uint256,uint256,uint8,bytes32,bytes32)":"c3cda520","delegates(address)":"587cde1e","eip712Domain()":"84b0196e","getAllStakers()":"6e4f88c8","getCurrentVotes(address)":"b4b5ea57","getPaginatedStakers(uint256,uint256)":"38ba40e1","getPastTotalSupply(uint256)":"8e539e8c","getPastVotes(address,uint256)":"3a46b1a8","getStakeInfo(address)":"c3453153","getStakingStats()":"c1dd6084","getTopStakers(uint256)":"c80ca39a","getTotalStakers()":"31ed0db4","getVotes(address)":"9ab24eb0","isStaker(address)":"6f1e8533","name()":"06fdde03","nonces(address)":"7ecebe00","numCheckpoints(address)":"6fcfff45","owner()":"8da5cb5b","permit(address,address,uint256,uint256,uint8,bytes32,bytes32)":"d505accf","renounceOwnership()":"715018a6","stake(uint256)":"a694fc3a","stakerAddresses(uint256)":"459598a2","symbol()":"95d89b41","totalStaked()":"817b1cd2","totalStakers()":"86989038","totalSupply()":"18160ddd","transfer(address,uint256)":"a9059cbb","transferFrom(address,address,uint256)":"23b872dd","transferOwnership(address)":"f2fde38b","unstake(uint256)":"2e17de78","updateLeaderboard()":"53734b02","userStakes(address)":"8da7ad23"},"id":3}